:020000041000EA
:1000000000B5324B212058609868022188439860DF
:10001000D860186158612E4B002199600221596106
:100020000121F02299502B49196001219960352056
:1000300000F044F80222904214D00621196600F024
:1000400034F8196E01211966002018661A6600F04E
:100050002CF8196E196E196E052000F02FF8012189
:100060000842F9D1002199601B49196000215960AB
:100070001A491B48016001219960EB211966A021F2
:10008000196600F012F800219960164914480160C1
:100090000121996001BC002800D000471248134993
:1000A000086003C880F30888084703B5996A0420EC
:1000B0000142FBD001200142F8D103BD02B5186610
:1000C0001866FFF7F2FF186E186E02BD00000240BE
:1000D000000000180000070000035F00212200005C
:1000E000F4000018222000A00001001008ED00E03C
:1000F00000000000000000000000000074B24E7A12
:1001000000200420F7010010C3010010C5010010F9
:10011000C1010010C1010010C1010010C101001097
:10012000C1010010C1010010C1010010C701001081
:10013000C1010010C1010010C9010010CB01001065
:10014000CD010010CD010010CD010010CD01001037
:10015000CD010010CD010010CD010010CD01001027
:10016000CD010010CD010010CD010010CD01001017
:10017000CD010010CD010010CD010010CD01001007
:10018000CD010010CD010010CD010010CD010010F7
:10019000CD010010CD010010CD010010CD010010E7
:1001A000CD010010CD010010CD010010CD010010D7
:1001B000CD010010CD010010CD010010CD010010C7
:1001C00000BE00BE00BE00BE00BE00BEEFF3058054
:1001D000103800BEF2EB8871A4B10010C0B100105D
:1001E0003802001090A31AE71E481F49086006C88D
:1001F00081F3088810471D480068002801D019487D
:10020000F3E70DA40ECC002902D000F012F8F9E7B4
:100210001749184A002000E001C19142FCD116495B
:100220008847164988471649884700BEFDE701C937
:1002300001C29A42FBD37047C0B10010C000002039
:100240005842002058F30010000004200000042051
:1002500058F30010001004200010042000000000DB
:10026000704700000000000008ED00E0000000D032
:1002700058420020D4700020C1460010D502001062
:10028000B9460010F8B5C04606480749091A8B1050
:10029000C90FC91810B5491003D0044B002B00D06A
:1002A000984710BD5842002058420020000000002E
:1002B000054B10B5002B03D00449054800E000BFF2
:1002C000FFF7E2FF10BDC04600000000805500208F
:1002D00000A8001000B585B0144803AB02AA01A91C
:1002E00001F0D4FD002803D11148104900F00AFCA8
:1002F000039A0299019801F0EDFC0A2001F0AEF991
:1003000004F04EFF0B4804F0C1FF01236A460020B1
:10031000938103A905F0F4FB01200021404205F080
:100320006DFC002006F0A8FAF6E7C046C0D4010034
:1003300000A800104D03001000B591B0402269469E
:10034000002006F04BFA11B000BDC04630B50A20BF
:1003500087B001F083F902AA11000B4B31CB31C1F8
:100360001B6801200B60642107F058FC02236A46D9
:10037000012001A9938007F055FC01200021404293
:1003800008F0A4FBF9E7C046F8AB0010F0B5CE4684
:10039000474680B5C9B005AE05000F0032001D4BC1
:1003A00013CB13C23900280009F098FA12236B44CA
:1003B000994604AB9846040019004A46280007F005
:1003C00011FC4B464246A00080591B8812881249F6
:1003D00002900197009508A804F012F9013C020070
:1003E00008A9002006F086FAE4B2002006F044FADC
:1003F000012C04D949B0C0BCB946B046F0BD3900A3
:10040000280009F081FA0028F4D11E22034906F0E1
:1004100071FAEFE708AC001034A8001068A80010CB
:1004200010B5094CC0B00B0002002100684604F072
:10043000E7F869460200002006F05CFA002006F0AA
:100440001BFA40B010BDC04688A80010F0B5CE46DB
:10045000474680B593B006000F00140009F03EFA3D
:100460000500012800D16CE002280AD039003000D4
:1004700009F04AFA00285FD013B0C0BCB946B046B4
:10048000F0BD002101232278E35602910321615639
:1004900000200191022161560091022106F066FCC4
:1004A00001231E22217810200B40013B93439C46E0
:1004B0004C231A3A0A40984653425A411F230D4092
:1004C00052429A436B425D41242308406D429D4352
:1004D00043425841182340429843103B0B40594235
:1004E0004B4114215B428B43C449C444099103210D
:1004F00061564D320691022161564630059164786D
:100500004233523564B209990393029063460092D4
:100510000494320001950AA804F072F80AA90200B6
:10052000002006F0E7F9002006F0A6F939003000B7
:1005300009F0EAF900289FD11E22B14906F0DAF944
:100540009AE7A31C01210020227806F0CDFBA378B6
:10055000002B00D012E100239946AA4DE378002B2E
:1005600000D0D8E02379002B00D0A2E06379002BE3
:1005700071D1A379002B37D1E379002B08D14B46F9
:10058000002B2DD108222100280002F0DFFB6DE7AF
:10059000A9789942F3D0E9789942F0D02979994223
:1005A000EDD069799942EAD0A9799942E7D0E97901
:1005B0009942E4D02220227893491040421E904173
:1005C0005B00C9180B5C0AAA90461370002BD6D0AA
:1005D0000A2B00D100E101224146002006F08AF9F1
:1005E000002006F049F9CDE7A9789942C4D0E9780E
:1005F0009942C1D029799942BED069799942BBD03C
:10060000A9799942B8D0E9799942B5D022202278C7
:100610007D491040421E90415B00C9180B5C0AAA3C
:1006200090461370002BA7D00A2B00D1DAE00122EC
:100630004146002006F05EF9E379002BD0D0AA787D
:100640009A42CDD0EA789A42CAD02A799A42C7D043
:1006500001229146A5E7A97899428AD0E978994282
:1006600087D02979994284D06979994281D0A97932
:10067000994200D17DE7E979994200D179E72220BA
:10068000227861491040421E90415B00C9180B5C02
:100690000AAA90461370002B00D16AE70A2B00D1FA
:1006A000B6E001224146002006F024F901239946D4
:1006B0005FE7A978994200D158E7E978994200D1DB
:1006C00054E72979994200D150E76979994200D1DC
:1006D0004CE7A979994200D148E7E979994200D1DC
:1006E00044E72220227848491040421E90415B0096
:1006F000C9180B5C0AAA90461370002B00D135E78D
:100700000A2B00D190E001224146002006F0F2F8C9
:10071000012399462AE7A978994200D122E7E9788E
:10072000994200D11EE72979994200D11AE76979E7
:10073000994200D116E7A979994200D112E7E979E7
:10074000994200D10EE720782F4984462220624644
:100750001040421E90415B00C9180B5C0AAA9046EB
:100760001370002B00D1FDE60A2B57D00122414621
:10077000002006F0BFF801239946F3E6214DAA7840
:100780009A4226D0EA789A4223D02A799A4220D0F7
:100790006A799A421DD0AA799A421AD0EA799A4285
:1007A00017D02222207818490240501E82415B0057
:1007B000C9188B5C0AAA90461370002B0AD00A2B2A
:1007C00016D001224146002006F094F801239946F4
:1007D000C4E600239946C1E601220C49002006F038
:1007E00089F8F8E601220949002006F083F81EE79F
:1007F00001220649002006F07DF8E2E7B0A80010CB
:1008000068A800109C6F0020F8AA0010ACA8001087
:1008100001220849002006F06DF842E7012205494F
:10082000002006F067F8A1E701220249002006F047
:1008300061F868E7ACA800100048704710AD0010E0
:100840000048704718AC001070B5002823D0042869
:100850002CD8174B8000C558280009F0A7FDC0B25E
:10086000041C1F2812D8E4B2002808D00023114A23
:10087000E95C01331180D9B202328C42F8D8C0222F
:100880000134E3B25B00920013430CE01F24E4B296
:100890000028EBD1F3E7064B02221968054802F065
:1008A00055FAC1239B000448038070BD0020FCE77B
:1008B000E03B0020C2490020C049002000487047AA
:1008C0007CAC00107047C046002070477047C0469F
:1008D0001300002010B5642900D010BD10221900AB
:1008E000024802F033FA0120F7E7C046F43B00204B
:1008F00010B5024804F0B0F9012010BDF43B00200F
:1009000010B50138C0B204F09BFA10BD10B5013823
:10091000C0B204F0B5FA10BD0138C0B243000D4AB0
:100920001B181B019B18D02230B51206997850680D
:10093000DC78536801221500A5408A402B405C42B8
:1009400063411040424250415B001843431E9841AE
:10095000C0B230BD246F00200138C0B24300044A49
:100960001B181B019B18587B012358407047C04639
:10097000246F002010B50138C0B204F0A5FA10BDF4
:100980007047C046F0B50D0083B001AF04003900D8
:100990002800160008F062F97A780023002A04D0B3
:1009A000FB78013B5A425341DBB2013C3200290043
:1009B000E0B204F0A5FA03B0F0BDC04610B582B0B5
:1009C0006C46248A01380094C0B204F025FB02B0C2
:1009D00010BDC04610B50138C0B204F065FB10BDB3
:1009E00010B50138C0B204F0E7FA10BD094A83001F
:1009F0009A1810B514684022544080322240064CA8
:100A0000C000A44663441A60044B9C4660444160A5
:100A100010BDC04604C0014004D001400040014068
:100A2000074B8000C3181B68C90092000A435A4054
:100A30000C231340034A9446604403607047C04649
:100A400004C0014004D00140064BC000C3181B681D
:100A500009045940C0239B021940034B9C46604443
:100A6000016070470440014004500140064BC00043
:100A7000C3181B6809025940C0239B001940034B4F
:100A80009C466044016070470440014004500140AE
:100A9000064BC000C3181B6809035940C0239B01C3
:100AA0001940034B9C46604401607047044001407C
:100AB00004500140054B8000C3181B684B400121C6
:100AC0001940034B9C4660440160704704C00140DC
:100AD00004D00140064B8000C3181B68054A090179
:100AE00059409446302360440B4003607047C04631
:100AF00004C0014004D001408023DB051868000FCA
:100B00007047C0460FB400B5084883B003F048FFF3
:100B1000049B002B07D005A91800019103F098FD54
:100B2000034803F03DFF012003F0AAFD1CA90010BB
:100B30002CA90010EFF3108072B6034A1368002B43
:100B4000FCD0BFF35F8F70472C0100D0BFF35F8FE5
:100B50000022024B1A6080F3108870472C0100D0ED
:100B600070B5EFF3108C72B60D4D2B68002BFCD0D6
:100B7000BFF35F8F0724CB08C618C05C01230C406D
:100B8000A3401C000440034207D118433070BFF358
:100B90005F8F2C608CF3108870BD1000FFF7B2FFE0
:100BA0002C0100D0F8B54746CE46884680B5EFF315
:100BB000108C72B61C4D2C68002CFCD0BFF35F8FDC
:100BC0009A4222D807210126894602E00132934247
:100BD00018D34D4637001540AF40D4080119045DC5
:100BE0002742F3D110003C430C70BFF35F8F00220B
:100BF0000D4B1A608CF3108800280EDBC0BCB94680
:100C0000B046F8BD01204042EFE7BFF35F8F0023FD
:100C10002B608CF31088012040424346002BEDD01E
:100C20000898FFF76FFFC0462C0100D0044A1078E7
:100C3000431CDBB2172B00D9102313707047C0463A
:100C4000043C002010B5064B064C82B00100009316
:100C500018221F232000FFF7A5FF02B010BDC046D9
:100C600030A90010085100200021044B044ABFF3B2
:100C70005F8F02C39342FAD17047C046000100D093
:100C8000800100D0054B064A1360064A136053608A
:100C90009360D3601361536193617047808080805B
:100CA00000E400E004E400E01F2318401E3B834002
:100CB000002905D0C021044A4900535013607047F1
:100CC000802201498B50FAE700E100E001228240D6
:100CD000034B1B6813405A1E9341D8B27047C0465D
:100CE00000E100E070B50D00EFF3108672B60F4A18
:100CF0001368002BFCD0BFF35F8F0D4B10309B6847
:100D000084001B590B4A934203D09D4201D001F04D
:100D100095FA074B9B681D51BFF35F8FBFF35F8F41
:100D20000022024B1A6086F3108870BD240100D0A7
:100D300000ED00E0CD010010F0B557464E46DE460E
:100D40004546E0B585B0060000911700EFF3108B23
:100D500072B66A4A1368002BFCD0BFF35F8F002580
:100D6000674B5D579A46002D00DAA9E06B00654C91
:100D700001935B199B009846A146C1444B465246DD
:100D80009B7910361370604BB6009B6899590B1B0A
:100D90002F2B33D95D4B994200D0ACE0019B4246EA
:100DA0009C465B4B6544AD0063535A4B0232A2181C
:100DB000043B9B1A1B05584A5B0D651913436B8056
:100DC000564B0121AB80FF23AB71009BEF71AB60F1
:100DD0004B460B4319004C4B9B689951BFF35F8FF7
:100DE000BFF35F8F0022454B1A608BF3108805B06C
:100DF000F0BCBB46B246A946A046F0BD01200A00A1
:100E00008243D3798C46BB4231D8454613004449CE
:100E10001B1B5B415943090D3D4B63533D4B023551
:100E20006519043B5B1B1B053B4D5B0D2B43AA4621
:100E30004D466B800425AC465546E044131F4444A0
:100E40001B1B1B055B0D1D434B46997100999D8033
:100E500099604946DF71334B01431360BBE758008B
:100E6000C01880002018C179B9422FD9020006238A
:100E7000D356002BF3DA02932B4B61460393131DD9
:100E80009A4604235B429C46E14450464B461B1A5B
:100E90001B055B0D9C46204B95719846634640466A
:100EA00003439380019B5A199200039BA418A380CB
:100EB000029B1C4AA371009B2260E771A3608AE732
:100EC00001F0BCF9002553465D574FE79088029327
:100ED0004005131D9A46031561469C464046D4447E
:100EE000634604302018181AE0230005400D1B0249
:100EF00018430390C5E701F0A1F94FE7240100D0A2
:100F0000D0700020083C002000ED00E0CD01001072
:100F100000A1FFFF383C002000E0FFFF01BDFFFF04
:100F2000AAAA00000148804701BD000070B5012455
:100F30000443EFF30581EFF3108C72B6214A136876
:100F4000002BFCD0BFF35F8F1F4B05001F4AED1A2B
:100F50006D416A43120D1E4D8900AE6852B276583B
:100F6000A6421CD00621595691421CD01221595636
:100F7000914222D01E215956914220D02A21595601
:100F80000324914210D0134B19781A708171BFF36A
:100F90005F8F00220B4B1A608CF3108870BDAB681A
:100FA0000D4C5C50EFE700246100091989005B18C3
:100FB000FF21997109499980E5E70124F4E70224AA
:100FC000F2E7C046240100D0083C0020AAAA000095
:100FD00000ED00E0D0700020CD01001001BDFFFF4A
:100FE000024B9C4661448900016070474000003418
:100FF00070B5114C114DAC420FD2FF262368002B67
:101000000CD0FFF713FE01002000FFF7E9FFA680D8
:10101000BFF35F8F0834AC42F0D370BDFFF706FE1C
:1010200001002000FFF7DCFF2671BFF35F8F08345B
:10103000AC42E3D3F1E7C0464842002058420020CA
:1010400010B50400FFF7F2FD01002000FFF7C8FF14
:10105000FF232371BFF35F8F10BDC04610B504009E
:101060000120FFF7EFFD034BC3189B002360BFF384
:101070005F8F10BD400000340A4B1968EFF31080F9
:1010800072B60A68002AFCD0BFF35F8F1B68BFF3FB
:101090005F8F00221A6080F3108840BF002000217B
:1010A0007047C046A8700020F0B5DE4657464E4651
:1010B0004546E0B587B0EFF30583032201251A40CA
:1010C000954091008846A946B34B03925C58B34BB8
:1010D0001D60B34B04934B46B24843630823E55E5F
:1010E000002D37DAA3881BB2002B00DBADE0A3791B
:1010F000002B00D0EEE00823E05E002820DB430058
:1011000062691B18DB00D3189E68DD68731C00D170
:1011100011E1A44801004144826A0B69B71A9B1A85
:101120009F4215D30123026A039883401A420FD0CD
:101130009C4800F037FC8D4202DCCCD18642CAD9F3
:1011400040BF07B0F0BCBB46B246A946A046F0BDC2
:101150000E61EDE762696B0092465B19DB009A4411
:1011600053469E68DF6800F01DFC8F42BADC00D158
:1011700003E1002F00DAE8E05246534652691B694A
:101180009346049A934200D1D9E052460821605E0A
:1011900052880004594610439847009001910099E5
:1011A000019A0B001000134300D1CEE013000A0097
:1011B000B61A9F41002806DB7A4800F0F3FB009E38
:1011C000019F36184F4153469E60DF6000229A5EB1
:1011D000002A00DA86E7530099186069C9004118AF
:1011E00002938B68C9689B46B94200DD7AE702D159
:1011F000B34200D976E708239C46A444059565468A
:101200002281A446029B2C0006E053009918C900D5
:1012100041188D68C968AB469B18DB00C318B942FA
:1012200006DC00D1B3E01C000023E25E002AECDA09
:10123000230064469C4653461A806346059D1D80E4
:10124000A3881BB2002B00DA51E72269EFF310816B
:1012500072B61368002BFCD0BFF35F8F0123A78801
:101260005B42A3803FB22369BFF35F8F00221A6005
:1012700081F31088002F00DA39E7230008332200B9
:101280009A4666697B00DB19DB00F31899685046C3
:101290008C460824115FDD68002910DB029306E00C
:1012A000AB4244D00023E15E2000002906DB4C0065
:1012B0006418E4003419E368AB42F1DD029B078057
:1012C00000201F5E1980002FDCDA1400A379002BA8
:1012D00000D110E70023A37126000823E15E083641
:1012E0004B1C00D12CE70800A246656902E03E00D5
:1012F0004B1C1AD04B005B18DB00EF180A008C4621
:10130000E95E7B881BB2002BF1DA01235B42DC171C
:10131000BB60FC60824205D0534631801B893B8014
:1013200053461A8160464B1CE4D15446E5E6A36857
:101330006345B7D9C2E76B1C00D0EAE6F8E65B4626
:1013400058461B69984700281BD153461B882269C1
:101350002381EFF3108372B611680029FCD0BFF32C
:101360005F8F514662880A8022696580BFF35F8F74
:101370000021116083F31088B4E6864200D8F8E6B5
:10138000B0E65B461A685B680092019307E7B345D5
:1013900000D848E74CE7C046846F00203C70054009
:1013A000A91000100040054070B52E4C2569002D95
:1013B00004D00A212C48FFF713FE70BD2B4E0321E9
:1013C000300000F0E5FAE660FFF730FC284B03221E
:1013D0009C46D02322701B061B6801216370254B9D
:1013E0006044A3600F238000206102206380636952
:1013F0004942A18019800231198647311D83585214
:1014000018315A5275325C39995218320131995259
:101410001832013199521832013199520835183277
:101420009D520231183299521832013199521832B4
:1014300001319952183201319952183201319952C1
:101440001832013199520C4B0C49DC600130356285
:10145000FFF748FC01210320FFF726FC084B1D6025
:10146000A7E7C046503C0020A8700020004005407F
:1014700040000034FFFF1000846F0020A91000100E
:1014800038600540F0B5C646060000B518200F00CC
:10149000904601F00DFC051E3FD01821404601F09A
:1014A00025FC39006861300000F072FAEE60FFF749
:1014B000BDFBD0222F70120612681A4B6A709C4630
:1014C0000122434652429BB26B819B186B8043467C
:1014D0006044800028612A81AA80002B0BD05A002A
:1014E0006C694244D200104B121923800133183426
:1014F0009BB29442F9D10124BC400C4BBA00380095
:101500000B493462D550FFF7EDFB01213800FFF79E
:10151000CBFB084B9C4666443460280080BCB84630
:10152000F0BDC04640000034FFFF0000846F002083
:10153000A91000103820000070B501000469EFF315
:10154000108C72B620680028FCD0BFF35F8F022099
:101550000D5E4C6968004019C00024180869002D10
:1015600036DB26884E80BFF35F8F002606608CF343
:101570001088E36063880498013320615B04059858
:101580005B0CA26060611A1C002B1FD093B2280470
:10159000628018430A69EFF3108C72B61368002B4F
:1015A000FCD0BFF35F8F8B8823808D800B69BFF3E6
:1015B0005F8F00221A608CF310880B7801329A40FA
:1015C000CB6808498C4663441A6070BD0122DDE790
:1015D000BFF35F8F002303608CF31088012040422B
:1015E000F3E7C0463C20000010B543890A1493423B
:1015F0001ADD53009B184269DB00D3180469EFF32E
:10160000108C72B62268002AFCD0BFF35F8F5A8814
:10161000090494B2090C8A4208D00369BFF35F8FB2
:1016200000221A608CF31088002010BD8022120264
:1016300014435C80012302698371BFF35F8F002133
:1016400011608CF31088044902788C469340C2687C
:10165000012062441360E8E73C200000F0B5C64674
:1016600000B582B0040000F0A5F9FA2206000F00D0
:10167000200000230021920001F07AFA80197941BC
:1016800004000D1E02DA01242E4D64420626764225
:10169000F71736196F41AF4214D811D000F08AF90C
:1016A00032003B00121A8B41002B15DC002B46D078
:1016B0002000290000F00AFA02B080BCB846F0BD54
:1016C000A642EBD90026002700F074F932003B0057
:1016D000121A8B41002BE9DD00F06CF932003B005F
:1016E000121A8B41002B0ADB00230193164B3200A8
:1016F000009316483B00FFF71FFF0130D8D00023AE
:101700003900B0469C46124A1248536A994204D89E
:10171000966A4645CCD29942CAD10668EFF3108743
:1017200072B63368002BFCD0BFF35F8F0368BFF342
:101730005F8F66461E6087F3108820BFE5E7002AAA
:10174000B6D0C9E7FFFFFF7F79100010503C0020A2
:1017500000400540A8700020F0B557464E46DE46D2
:101760004546E0B506000F0085B0EFF305839946C6
:101770008B46002B12D0384900204B6ABB4206D35F
:101780008A6ADB1B591E8B41B2424041184305B0A7
:10179000F0BCBB46B246A946A046F0BD2F4B9A46C8
:1017A000DB68984653461B784046039300F0FAF8EE
:1017B0004246039B040004339B009B580D001B1AF8
:1017C00039003000001BA941894510DC0DD020BF35
:1017D000214A0020536A5B45D9D3926ADB1B591E0C
:1017E0008B41B24240411843D1E78342EFD900F028
:1017F000E1F832003B00121A8B41002B1ADB002368
:101800000193174B3200009350463B00FFF794FEC4
:10181000011E0FDD104B5A6A5A451BD39B6AB34217
:1018200016D35046FFF7E0FE0B4A0020536A5B4593
:10183000ADD3D2E7084A0020536A5B45A7D3002006
:10184000926ADB1BB24240415A1E934118439EE705
:101850005A45E6D120BFE4E700400540503C002057
:1018600079100010F0B5CE464746110080B583B020
:1018700004009C460C9D194300D16CE06146DB17C7
:101880000193009353401E00019B4B401F000098A2
:101890000199361A8F4163460A996B600B9BAC60C5
:1018A00029612A606B6100F085F88019794100296F
:1018B00002DA0120314940422269EFF3108972B601
:1018C0001368002BFCD0BFF35F8F0223E65E6369D1
:1018D00072009219D2009B1822699046002E42DBBA
:1018E0001A886280BFF35F8F002247463A6089F30F
:1018F0001088234A9860D9601A615A885D61013264
:101900005204520C111C002A2BD088B2320402431C
:1019100059802069EFF3108772B601680029FCD066
:10192000BFF35F8FA1881980A6802369BFF35F8F03
:101930000021196087F3108812482378844601310A
:1019400099400120E36863441960EA6003B0C0BCB9
:10195000B946B046F0BD00230126002701229C466F
:1019600099E70121D1E7BFF35F8F0023136089F36B
:101970001088012200205242E7E7C046FFFFFF7FA8
:10198000A91000103C2000000048704700400540AE
:1019900010B5024A0248FFF7E3F810BD4CA9001049
:1019A0000C5100200300416A0A00986A596A8A4271
:1019B000FAD17047034B596A0A00986A596A9142F2
:1019C000FAD170470040054070B504000D00174A79
:1019D000536A1900966A536A8B42FAD13000190093
:1019E00024184D41AB4216D813D0104B2A005B6A25
:1019F0009D4203D90D494B6A9342FCD3934207D1D0
:101A00000A4A02E0516A994202D1916AA142F9D38D
:101A100070BDA642E9D9054B5B6A1C005A1CEFD089
:101A2000012201246442E5175242E3E700400540E9
:101A3000244B70B598420BD843011B1A224A9B00D5
:101A40001818916AC000936A5B1A9842FBD870BD5F
:101A5000FA2200239200002101F08AF804000D0010
:101A6000194A536A1900966A536A8B42FAD13000B8
:101A7000190024184D41AB4218D9134B5B6A1C0066
:101A80005A1C0AD0012301246442E5175B420E4927
:101A90004A6A9A42FCD39A42D9D10B4A02E0516A6F
:101AA0009942D4D1916AA142F9D3D0E7AB4205D093
:101AB000054A2B00526A9542E9D8ECE7A642F7D9CD
:101AC000DBE7C0469BC4200000400540064A536A3D
:101AD0009942FCD807D1044B02E05A6A914202D1E4
:101AE0009A6A9042F9D8704700400540F8B5DE4642
:101AF0004E4657464546E0B58B4605000A99180004
:101B0000160000F0BBFC0A9B6C001F02324B6419EC
:101B10009C46A4006444636881469F4200D9676084
:101B20002B1FDBB29846012B30D9C02380229B01AA
:101B3000E31812011A60294BAD0059599A46002941
:101B40001BD17301E026226853401E408023424689
:101B50005B01E3181E60012A30D9802380229B019B
:101B6000E31812011A6053464A4667605A51F0BCA6
:101B7000BB46B246A946A046F8BD586900F07EFCB7
:101B8000013043001B18033BFDD2DAE75B46012B13
:101B9000CBD1C02303229B01E3181A60023AA36849
:101BA0001A42FCD07301E0262268AD0053401E406B
:101BB00080230A4A5B019246E3181E605A46216858
:101BC000514003220A401A6001225B469A40A368F2
:101BD0001A42FCD0C1E7C0460080004014510020EA
:101BE000F0B546464F46D646C0B51F00344B4400BC
:101BF0009C462418A4006444636888461600FF2BA2
:101C000002D880235B006360031FDBB29A46012B7E
:101C100030D9C02380229B01E31812011A60294B9E
:101C200085005959994600291BD17301E026226885
:101C300053401E40802352465B01E3181E60012A78
:101C400030D9802380229B01E31812011A6080237F
:101C50005B0063604B465F51E0BCBA46B146A846A4
:101C6000F0BD586900F00AFC013043001B18033B2B
:101C7000FDD2DAE74346012BCBD1C02303229B01DF
:101C8000E3181A60023AA3681A42FCD07301E026F6
:101C90002268850053401E4080230A4A5B0191461A
:101CA000E3181E6042462168514003220A401A6030
:101CB000012342469340A2681342FCD0C1E7C046CC
:101CC0000080004014510020014B8000C058704734
:101CD00014510020F0B54746CE4680B55B4B160048
:101CE0005A680700884683B0FF2A02D88022520033
:101CF0005A600322564B554D1A600123AC682342AB
:101D0000FCD0202229685140C0320A4051490A6063
:101D10002A684E4D5A40032313400B600223AC68DF
:101D20002342FCD080224C4B12011A6080235B00BE
:101D30006B604A4C99464A4B3A0063610121434625
:101D40004848009600F0D8F941463800714300F049
:101D500095FB454B05005A68FF2A01D84A465A6050
:101D60008022424B12011A602169002907D0606964
:101D700000F084FB013043001B18033BFDD2E0233D
:101D8000394A3B4811680B400360022311685940EF
:101D900001330B400421036093681942FCD0802179
:101DA000344B090119608021334B49005160236194
:101DB000264B5A68FF2A00D8596003220121244B80
:101DC0001A60224A93681942FCD0E023106803404D
:101DD00020480360126803234A40022113401B4A33
:101DE000036093681942FCD080211B4B09011960E4
:101DF0008021224B4900516065615A68FF2A00D852
:101E0000596080221E4B12011A60A169002907D077
:101E1000606900F033FB013043001B18033BFDD227
:101E2000402316490A685A40A0331340154A1360EC
:101E30008022154B12011A6080235B004B60084B17
:101E4000A36103B0C0BCB946B046F0BD3C800040C1
:101E50003CB000403C9000403CA0004014510020A9
:101E6000006CDC02008002403080004030B0004056
:101E70003090004030A00040001BB7004880004078
:101E800048B000404890004048A00040F0B54E46A1
:101E9000DE4657464546E0B51600924A85B0934661
:101EA000A022520091465A4603969B460600019294
:101EB0000291019B8C4A93420DD901235B429C46BF
:101EC0008A4AE1449446019B634401934B460F2B9D
:101ED000EFD100208EE01F00854B07249C4667440D
:101EE0002300634338001900984600F0C7FAA24661
:101EF000651E864250D06C433800210000F0BEFAC7
:101F0000864259D06B1E9846012D00D1D3E053462E
:101F1000E41A2100380000F0B1FA864258D0AB1E16
:101F20009846022D00D1B9E05346E41A210038004A
:101F300000F0A4FA864264D0EB1E9846032D66D0CA
:101F40005346E41A2100380000F098FA864200D186
:101F500072E02B1F9846042D00D174E05346E41A1A
:101F60002100380000F08AFA864200D17DE0052D7C
:101F700000D17FE053463800E11A00F07FFA0624D2
:101F80008642ADD10029ABD1C8465B46D14601257A
:101F90000298039E26E0A8464146380000F06EFAFB
:101FA000002900D197E0651EA2466C43380021004D
:101FB00000F064FA8642A5D12100380000F05EFAF4
:101FC00000299FD1C8465B46D1460298039E09E08E
:101FD0000029A4D15246C2465B46C84655469146A2
:101FE0000298039E4246434951434A4601600120FC
:101FF00032601D6005B0F0BCBB46B246A946A046A3
:10200000F0BD0029E6D0EB1E9846032D98D109219A
:1020100038000324092500F031FA8642BBD003239F
:10202000062138009A460334073D00F027FA86421D
:10203000C2D0012398466AE70029CBD02B1F9846CF
:10204000042D00D08AE704240C353B099E42A2D01F
:1020500004230C2138009A4608340D3D00F00EFA96
:102060008642A9D00223984651E70029B2D0052D17
:1020700000D07FE719213800192500F0FFF98642CA
:1020800026D01421380000F0F9F9052314249A46CB
:1020900086421BD0023B9846153D38E704230224B4
:1020A0009846BB089E4200D176E7A246013D7B08D8
:1020B0009E4200D180E7B74200D0FEE60122C8462A
:1020C0005B46914601250298039E8BE7042573E742
:1020D000A846052460E7C8465B46A146250002984D
:1020E000039E7FE750262F0050F80C0020D1FFFF01
:1020F000B0710B00001BB700F8B5040021481E00AA
:1021000017000D0000F0BAF90100380000F0B6F930
:10211000069B36041B031E432368002B20DB1A4B4F
:102120001A49E3185A1E93418022920194465B4259
:102130001B0B174A1B0363441360164A13601F00EE
:102140000A689743FBD1144B2560E2182123A06055
:1021500013602368002BFCDA0823E6601360F8BDE7
:102160003F2322681340AB42D9D1A3681B051B0D46
:102170008342D4D1EE22E368D2021340B342CED1DF
:10218000EDE7C046001BB7000040FDBF08C000409F
:1021900000E0004000F00040043000008023024ACC
:1021A0009B000B43D362704700800540002310B5AD
:1021B0000100988A1B8B984710BDC046162310B5A6
:1021C0000100188802331B88984710BDF8B54746B0
:1021D000CE4680B50F1E18D0142399460433040050
:1021E0000025012698464B461888434621681B88DF
:1021F000984701C4431E984101350640AF42F2D1D1
:102200003000C0BCB946B046F8BD0126F8E7C0466C
:10221000AA23064A1B0113608D235B00D360044987
:10222000044B19605368002BFCDA704700400240F1
:1022300000B0FA00006002407047C04610B5014887
:10224000FEF760FC70A9001070B5074D074EB5424F
:1022500009D20024013E761BB60808CD984723001A
:102260000134B342F9D170BDC0A70010FCA7001023
:1022700070B5074D074EB54209D20024013E761BCA
:10228000B60808CD984723000134B342F9D170BD98
:10229000F4A70010FCA70010054B064A06491A6077
:1022A000064A074B1A6010000B689843FBD1704731
:1022B00000E00040BFCDFBFE08C00040FE7F3C00B8
:1022C00000F00040044BDB6C002B03D18022034B59
:1022D000D2021A607047C046000011504C201150C5
:1022E000044A054B1A60054A1368DB018033FBD1B1
:1022F0007047C046FFFFFF0100F0004008C00040EB
:102300004022034B9A675A671A67DA667047C046DD
:1023100000F0014010B5FEF7A7FC10BD70B5044DEC
:10232000044CA968C022200000F010FDAC6070BD14
:1023300000ED00E000000020002310B5294C82B021
:10234000A367FFF765FF0122274B1A60636C012B1F
:10235000FCD10322254B1A60224A936B012BFCD13E
:10236000013300930121224A22480433FFF7C4FEBF
:10237000052301210093204A2048FFF7BDFE0022DB
:10238000022104201E4BFFF72BFC00220121052017
:102390001C4BFFF725FC0022002107201A4BFFF7FA
:1023A0001FFC002200210820174BFFF719FC802397
:1023B000DB000093002200210920134BFFF796FB5E
:1023C0000022104B00210620FFF70AFC0420FFF733
:1023D0007BFC0E4900F052F801000020FFF7DEFE02
:1023E00002B010BD008000403CB0004030B0004062
:1023F000002F685900800240008C864700C00240D0
:10240000001BB70040597307006CDC0240420F000C
:1024100001480421014B1847703C0020CD210010D9
:10242000014B9B6818470000703C0020124A936FD4
:102430009B0815D29066D166002905D0FFE7FFE71B
:10244000FFE7516F106F704704B580210906C2176E
:102450005140002800D0C84308F05AF9002104BDBB
:10246000F0B5146E556E576F166FFFF7E3FF1466E5
:10247000556657671667F0BD000000D0114A936F8C
:102480009B0813D210665166002905D0FFE7FFE7CD
:10249000FFE7516F106F704704B5002801D000208E
:1024A000C04308F035F9002104BDC046F0B5146EF4
:1024B000556E576F166FFFF7E5FF14665566576741
:1024C0001667F0BD000000D094464A4A926F920809
:1024D000624601D228E0C046F0B5464E346E756EB5
:1024E000776F366F00F020F89446424A14665566BE
:1024F000576716676246F0BD94463E4A926F92084F
:10250000624601D254E0C046F0B53A4E346E756E64
:10251000776F366F00F04CF89446364A146655666D
:10252000576716676246F0BD002B24DB11D00029E7
:102530003EDA00B5C943404200D1013100F038F81D
:10254000C943404200D10131DB43524200D1013343
:1025500000BD002AEBD1002801D1002905D00020C0
:10256000C90FC90701D1C043410800B508F0A8F858
:102570000022002300BD00B500290ADBDB435242E4
:1025800000D1013300F014F8C943404200D10131B9
:1025900000BDC943404200D10131DB43524200D16A
:1025A000013300F005F8DB43524200D1013300BD96
:1025B000002923D1002B18D1002A0CD0BC460D4F86
:1025C00038667A6600210023FFE7FFE7FFE77A6FAE
:1025D000386F67467047002801D00748010000B5F2
:1025E00008F06EF80022002300BD02000B0000205E
:1025F00000217047000000D0FFFFFFFF002B00D03C
:10260000BFE0130C28D1002AE7D080B4114F3966FF
:102610007A66FFE7FFE730B4040C7B6F396F1B0469
:1026200023433B667A66FFE7FFE7FFE7C04684B2D5
:102630007B6F3D6F1B0423433B667A66FFE7FFE732
:10264000C04600232C042D0C7A6F386F00196941A5
:10265000B0BC7047000000D0F0B594460025140EC1
:1026600001D112020835140F01D112010435940F63
:1026700001D192000235D40F01D152000135D40BA3
:102680000134254F7C66254C3C660E0C93B2FFE767
:10269000FFE7FFE73C6F6643360C7703BE467343A4
:1026A000DF0B5B04C01AB941130C7343DB18C91A62
:1026B000CE086643360CB64493B273431F0F1B011A
:1026C000C01AB941130C73431F0B1B05C01AB94143
:1026D000860D8F023E436643360C092D24DB520AD9
:1026E0007243801A7703460A6643360C16235B1B37
:1026F000DE40DF40BF1964466643821B70460435E6
:1027000006330100D940A840C01900D30131A242CC
:1027100006D20023F0BD0000000000D0FFFFFFFF45
:10272000121B0130F3D3F1E709277F1BFE406446FB
:10273000A2B27243801A00D20139220C7243130CE8
:102740001204821A99410B007046043513370100B8
:10275000F940A840801900D30131002B02D1A242D8
:102760000AD2F0BD013000D30131121BFAD2013B75
:10277000F8D1A24200D2F0BD013000D30131121BCA
:10278000F7E7F0B51C0C00D080E00CB400251C0A63
:1027900004D11B02160E3343120208351C0B04D160
:1027A0001B01160F3343120104359C0B04D19B000F
:1027B000960F334392000235DC0B02D192185B4135
:1027C00001351C00971864410134464F7C66464C25
:1027D0003C660E0CFFE7FFE7FFE7C0463C6F664331
:1027E000360C7703BE4697B27743C01B00D201393F
:1027F000C01B00D201399FB27743C91BC91B170CFC
:1028000077437E04FF0B801BB941CE086643360C2C
:102810000C2D33DBB644120B1F053A431B0B97B24A
:102820007743C01B00D201399FB27743C91B170CF5
:1028300077433E043F0C801BB941860D8F023E4317
:10284000664329277F1BFE400C3D7746AF40BF19EA
:1028500030BCA2B2ABB272437343801A9941220CCE
:102860007243130C1204801A994102000B000137C5
:10287000001BA941F9D2781E0021F0BD0C277F1B57
:10288000FE4077467F0BAF40FF19E0E700245D1C58
:1028900007D0144F7D663966FFE7FFE7FFE7FFE7E4
:1028A0003C6F95B29EB265436643401BB141150C27
:1028B0001E0C6543664336042F0C3E432D04401B1B
:1028C000B141994204D202000B0020000021F0BD6A
:1028D00001D19042F7D3801A994101349942F2D341
:1028E000F6E70000000000D0FFFFFFFF4840414036
:1028F000484018B4134B5B68019308BD18B4114BE2
:102900001B68019308BD94460F4A926F920805D246
:10291000624618B40B4BDB68019308BD0A4AF0B558
:10292000146E556E576F166F6246FFF7F2FF064A38
:102930001466556657671667F0BD18B4014B9B685F
:10294000019308BD10440020000000D0FFB55040A6
:102950004240504059404B40594000E0FFB5154FB0
:102960004C00640D03D0BC4204D10C0314D80020E9
:10297000090D09055C00640D03D0BC4204D11C03A1
:102980000AD800221B0D1B0501264B4009D44B40E1
:1029900003D58B4200D18242FFBD9942FCD19042C7
:1029A000FFBD0B43DB1803431343F5D0C94349185C
:1029B000FFBD0000FF07000000B5FFF7CFFF80411B
:1029C00000BDC04600B5FFF7C9FF01D9002000BD1A
:1029D000012000BD00B5FFF7B9FF01D9002000BDFF
:1029E000012000BD00B5FFF7B1FF804100BD01200F
:1029F00040054A00121804D85A00121801D80020C5
:102A000070470120704700000021002805D1704761
:102A1000C1174840401AFAD0C90713B5064B1B68C6
:102A200098470CBC441CA2401005120B0349091B1B
:102A300009051943114310BDA46F00201F040000B5
:102A400010B54C00620D8023D218DB00D21A5B0552
:102A50007E2A10DD9E3A13DACC1709034908194380
:102A60005242D140640001341532202A05DAD040A8
:102A70000843604310BD002010BD0846604310BDF0
:102A8000C80FC018013810BD18B4024B5B6A01931F
:102A900008BD00001044002010B50148FEF732F8D0
:102AA0007CA90010132370B51D78012D19D014DDF9
:102AB0001D48FFF783FB06001C48FFF77FFB1C4CFB
:102AC00080223100200000F041F9022D06D0194883
:102AD000FFF76CFB184B186070BD154C174BA364C7
:102AE000F5E7174B124C23606360A360E36023613A
:102AF0006361A361E36123626362A362E3622363B0
:102B00006363A363E36323646364A364E36423658F
:102B10006365A365E36523666366A366E36623676F
:102B20006367A367E367D9E7534400005346000097
:102B3000104400204C330000A46F0020452B0010EF
:102B4000992A001007B5604601880A0A0230DF2A78
:102B5000FAD1C9B2820804D3028840880004104325
:102B600000E00068014A5050039007BD1044002067
:102B700051434343C9188C46110C83B24B4310B4E4
:102B8000040C614392B280B2504362431C041B0C9C
:102B9000001910BC59411304120CC0185141614472
:102BA000704700004840414048400E4B5B68184762
:102BB0000C4B1B6818470C4A936F9B0802D2094BB9
:102BC000DB681847F0B5146E556E576F166FFFF738
:102BD000F6FF054A1466556657671667F0BD014B48
:102BE0009B681847A86F0020000000D0491A0028F1
:102BF00008D1084670470000C10FC90700D5404200
:102C0000002817D0F44603B40B4B1B68984706BC4A
:102C100081409E384042803107D20B0607D04900E0
:102C2000490AC0051043084360470130F8E7490AE4
:102C30008902F5E770470000A46F0020014B5B6A32
:102C400018470000A86F002010B50148FDF75AFF93
:102C500034AA0010132310B510481C78FFF7AEFA01
:102C60000100012C0AD003DD80220D4800F06EF82F
:102C70000C48FFF79BFA0C4B186010BD084C54220F
:102C8000200000F063F82200084980322368002BFE
:102C900000D1216004349442F8D1E9E753460000A2
:102CA000A86F00204C330000A46F0020492C0010B6
:102CB00070B504000A4E300007F072FD200007F0E6
:102CC0004BF80500300007F0F3FC002D05D0054B54
:102CD0002C199C4201D8280070BD0348FDF712FF53
:102CE000484200200000042094A90010F8B5060016
:102CF0000C000C4F380007F053FD2100300006F0A7
:102D0000CBFF0500380007F0D3FC7443002D05D03D
:102D1000054B2C199C4201D82800F8BD0348FDF74B
:102D2000F1FEC046484200200000042094A9001093
:102D300001480421014B1847803C0020CD210010A0
:102D4000014B1B6818470000803C0020014B5B686A
:102D500018470000803C00209A4200D288547047F7
:102D60007047C046F8B55746DE464E464546E0B584
:102D700099460A9B07009A460D9B884693460B9CF2
:102D80009B073BD10C9B9C423DD21E1B0B94150014
:102D90000C005E442A004B46013521002020B84734
:102DA000B542F7D1A0460B9C002C20D045463619E1
:102DB0005346321B013C185D29004B46B847002C96
:102DC000F6D12B00350098460D9B9B070FD55B462F
:102DD000EC1A0C9BA3420AD9464698462A004B4659
:102DE000310020200134B84701354445F6D328008E
:102DF000F0BCBB46B246A946A046F8BD1600150079
:102E0000002CD3D1E0E716001500002CCED1EEE760
:102E1000F0B54546DE4657464E46E0B585B09C4681
:102E200010AB1B78149F934698460F9C129E139DDF
:102E3000BB074CD4002D42D1B44248D201233B40C1
:102E400099460E9B013B9A46302304E052460134DA
:102E50001355A64201D9202CF8D14B46002B00D1A6
:102E600083E00E9B013B99463023A54205D82EE016
:102E70004A4601341355AC4229D0202CF8D1FB0628
:102E80000CD57B0554D4A64263D0A54261D0119BDA
:102E9000102B50D0022B57D0202C32D1202301935D
:102EA0000E9B5A460093039763460295FFF75AFF1D
:102EB00005B0F0BCBB46B246A946A046F0BD012312
:102EC0003B40994601233B422AD1B442B9D3FB0689
:102ED0001CD57B05DBD4002CD5D1119B102B5BD0EE
:102EE000119B022B6BD0302301240E9A13704346A2
:102EF000002B10D17B073ED52B260E9A631C16554E
:102F0000CDE72300013430260E9AD654202CC5D0AC
:102F10004346002BEED02D260E9A631C1655BEE7B5
:102F20004346002B2FD0013DB44200D289E798E7F9
:102F3000119B102BB2D1BB0637D5202CAED0582315
:102F40000E9A13550134A7E7202CA7D02300013493
:102F500007E0631E012CC0D0119A102A31D0022A3A
:102F6000D1D162260E9AD65496E7FB06CED57B05C4
:102F700000D488E78BE723003E0790D520260E9AE1
:102F8000013316558BE70C233B405A1E9341ED1A33
:102F9000B44200D255E764E7BB060ED478230E9AFC
:102FA0000224137030235370A1E7202C00D175E761
:102FB00078230E9A135501346EE75823EFE76033F8
:102FC000EDE70E9AA61E91464E44BA0602D5582247
:102FD000327098E77822327095E7C04610B5002825
:102FE00000D110BD01F092FCFBE7C0460B0010B50C
:102FF000002802D049681B68984710BDF0B55746B5
:10300000DE464E464546E0B595B083460F009246F3
:1030100098461E9A1F9B10001900209EFFF7E7FCA0
:10302000002800D0EAE11E981F990122C54B5242A8
:10303000FFF7C2FC002800D014E11E981F9901225E
:10304000C14B5242FFF7CEFC002800D0E9E01E98A9
:103050001F990022BD4BFFF7C5FC002800D0C8E037
:103060001E981F990022BA4BFFF7A6FC002800D03B
:10307000BFE01E981F9900220023FFF79DFC002847
:1030800000D0E4E000230B93229B5B0500D40626CE
:103090000024302307E0172106AA013452181355E3
:1030A000013E202C01D0092EF5D81E981F99FFF75C
:1030B000C7FCA84BF2009B181A685B6805000892D1
:1030C0000993FFF7A5FC02000B001E981F99FFF75C
:1030D00010FC089A099BFFF730FC06900791FFF758
:1030E000D3FC8146FFF790FC02000B00069807997D
:1030F000FFF7FFFB0022984B06900791FFF772FC49
:10310000002800D10DE101239C46E1444846FFF729
:103110007BFC02000B0008980999FFF753FC00287C
:1031200002D0002399460135002E00D1D9E0069542
:103130004D46B94614E006AA944617230A21634473
:10314000280001341F19FFF799F930313970280030
:103150000A21013EFFF792F9092D00D817E1050079
:10316000202CE8D14F46069D20240CAE06AA17233A
:103170009446634499465B46B34606930FE04B463C
:1031800028000A210134E618FFF750F930312800F1
:1031900031700A21FFF74AF9051E00D1E4E0202C26
:1031A000EDD1069B5E469B460323229A1340012BDA
:1031B00018D1219B002B15D00B9B002B00D1FDE0DB
:1031C000219B013B2193202B0CD93023219A07E02E
:1031D000172006A9013409180B55944200D3CCE0FE
:1031E000202CF5D1229B01940393219B00960293FE
:1031F00022E0229B52460493219B390003935846B8
:103200001E9B1F9C029600930194434600F04AF9CE
:103210000400200015B0F0BCBB46B246A946A0464B
:10322000F0BD229B5B070FD403224C4B22990192E5
:103230000391219900930291434652463900584622
:10324000FFF790FD0400E4E70422454BEEE71E9AE9
:103250001F9B00200021FFF74CFB01231E901F91B4
:103260000B9311E7229B54469B0711D1219B042B02
:103270000ED9219B55469C465E46043C64442A0078
:103280004346013539002020B047A542F7D1B34667
:10329000344D26002B1F99465B46A3461C00320086
:1032A000E87843463900013DA04701364D45F6D147
:1032B00023005C469B46229B04349B07A9D55346BA
:1032C000219AE31A9A42A4D95E4615002200434689
:1032D00039002020B04753460134E31A9D42F5D807
:1032E00097E72800FFF794FB02000B001E981F9938
:1032F000FFF7FFFA0022184B06900791FFF75CFBDF
:103300000CAE002800D031E7069807990022124B36
:10331000FFF768FB002800D028E7012301359D4313
:1033200024E70022069807990B4BFFF745FB00287E
:1033300000D0F9E64B46002B5CD101239C46E144CA
:10334000F2E6C046FFFFEFFFFFFFEF7F65CDCD4107
:1033500065CDCDC118AF00100000E03FF8A9001006
:10336000F0A9001000AA0010069B5E469B460323AE
:10337000229A1340012B00D181E0202C00D131E7AB
:103380000B9B002B27D02D23335501342AE74F46C2
:10339000069D202C00D1E7E63022331907E01720E4
:1033A00006A9013409180A55202C00D1DCE6A342F5
:1033B000F5D12E220CAE0134F254D7E60C23229A1A
:1033C000134257D0219B013B2193A34200D9FCE635
:1033D000202C00D106E7229B5B0703D52B23335516
:1033E0000134FFE6229B1B0700D4FBE62023335564
:1033F0000134F7E6DB0700D496E69EE7229B5546AC
:103400009B0711D1219B032B0ED9219B54469C462F
:103410005E46033D654422004346013439002020C6
:10342000B047AC42F7D1B346B9465F461C4EEC1CE0
:103430002A00B078434649460135B847013EAC42C0
:10344000F6D1229BBB464F469B0700D4E1E653468C
:10345000219AE31A9A4200D8DBE65E461500220064
:10346000434639002020B04753460134E31AAB42AB
:10347000F5D3CEE6219BA34200D9A6E6B2E6219B76
:10348000002B00D179E70B9B002B97D0219B013BB0
:1034900021939C4200D298E6202C00D073E7A1E64D
:1034A000FCA90010F0B5DE4657464E464546E0B54D
:1034B00099B081468B4692469846229A239B1000EB
:1034C0001900FFF794FA002800D0CAE02298239947
:1034D0000122824B5242FFF785FA002800D0C0E05B
:1034E0002298239901227E4B5242FFF765FA002869
:1034F00000D0B6E02298239900220023FFF75CFA5F
:10350000002800D0C9E1229B239C089309940898C5
:1035100009998023269ADB001A400D928022269C6E
:103520001201144022000B94269C07000E001C423E
:1035300000D0ADE00B00034300D0D5E0002A00D05E
:103540000AE2220006332493022313400C93022341
:10355000134200D002E2259B042B00D20FE2043B71
:103560000B93002304250A93002222982399002319
:10357000FFF722FA002800D003E25A4B269A1340A4
:1035800004930B9B0393249B0293089B099C009339
:1035900001945946434652464846FFF72FFD020024
:1035A0002020269B1F27034059424B415B42184075
:1035B000531C0893594643464530C8470A9AD317C7
:1035C000D4185C40D30F0A936B1E0B9308AB9C4638
:1035D0000025674401E0202D0FD020000A21FEF7CE
:1035E0004DFF01357E193031317020000A21FEF780
:1035F00045FF26000400092EEDD8052306930B9BFA
:1036000059460593002304930A3303930A9B4846C3
:10361000029310AB0093089A43460195FFF7F8FB1D
:103620000C9B002B2DD05346C41A259BA34228D9AE
:103630004D465F4681461E00534639001A19202028
:1036400043460134A847A642F6D853464846259932
:10365000C21A01320023914200D386E101301818CA
:103660000FE0269B0493259B0393249B0293229BAC
:10367000239C009301944346524659464846FFF71F
:10368000BDFC19B0F0BCBB46B246A946A046F0BD91
:1036900001432BD10B9B2200002B00D154E70023C8
:1036A0000A93249B0A9A0024934200DD85E1229824
:1036B000239900220023FFF77FF9002800D035E18D
:1036C000269B084A02941A408023DB00134304938C
:1036D000259B0393089B099CCBE7C046FFFFEF7F28
:1036E000FFFFEFFFFFF7FFFF06232493B44B7000AB
:1036F0009C46400D6044FFF78BF9B24AB24BFFF78E
:103700001CF9B24AB24BFFF7F9F83603B14B360B4E
:10371000334304000D00380019000022AE4BFFF7C0
:10372000E8F8AE4AAE4BFFF708F902000B002000A4
:103730002900FFF7E3F8FFF783F90A90FFF768F92C
:10374000A84AA94B04000D00FFF7F7F80022A74B89
:10375000FFF7D4F8FFF774F9A54A0600A54B20003F
:103760002900FFF7EAF8040030000D000C96FFF77F
:103770004FF9A14AA14BFFF7E0F802000B0020002F
:103780002900FFF7B6F802000B0006000F00FFF754
:10379000D4F8320004000D003B0030003900FFF780
:1037A000ADF800220E900F91954B20002900FFF7F5
:1037B000AAF80022934BFFF7A1F802000B002000AB
:1037C0002900FFF7A0F800228F4BFFF797F80200BF
:1037D0000B0020002900FFF796F80D00802104005F
:1037E00032003B000020C905FFF783F802000B0000
:1037F00020002900FFF782F802000B000E980F99B5
:10380000FFF781F80022734BFFF778F87F4B0C9C91
:103810009C46644400222305FFF78FF806000F0042
:1038200002000B0008980999FFF7C6F800280AD093
:103830000A9B3000013B39000A930022714BFFF7CD
:1038400062F806000F000A9A330063323900C62A74
:1038500012D802222698042510400B9A0C90002AB8
:1038600025D1259B042B05D9002800D0A1E0259B5C
:10387000043B0B93042541E00222269810400B9A4A
:103880000C90002A12D1259B052B76D9002872D1E5
:10389000259B0525053B0B9334E0802212069446B8
:1038A000229B0893239B6344099330E605250B4331
:1038B00000D1F6E608980999554A564BFFF78AF861
:1038C000002808D0089809990022534BFFF774F894
:1038D000002800D0E5E6249B002B1CD00D9B002B7C
:1038E00019D0249B013B2493259BAB4204D90C9B0C
:1038F000002B5AD002230C9300230B930A9B002B1E
:1039000000D131E60898099932003B00FEF7FBFF31
:103910000890099128E6259BAB42EDD90C9B002B22
:1039200043D000230B9302330C93E7E78020269BC0
:103930003A4A00061A40802384460294089C099D56
:103940002900DB0013430493259B61442200039369
:103950000B00009201938EE60524A8E600230B934A
:103960000A93023304250C93FEE553468C46013B33
:1039700063441B1A72E602230C930525C2E7042355
:10398000EDE58020089E099F000639008446269AAE
:10399000224B6144134004930B9B32000393249BFE
:1039A00002930B0000920193F3E5259B5B1B0B93A5
:1039B000A4E7022304250C93A0E79C1A013C76E6B9
:1039C00001FCFFFFFB799F501344D33FB3C8608BCA
:1039D000288AC63F0000F03F0000F83F61436F6354
:1039E000A787D23F71A379094F930A400000E03FB7
:1039F0001655B5BBB16B0240EF39FAFE422EE63FD9
:103A000000002C400000244000001840FF0300008C
:103A10002D431CEBE2361A3F80842E41FFF7FFFF57
:103A2000F0B5DE4657464E464546E0B5A5B01E0009
:103A30002E9B92460C93CD4ACD4B80468B461A6006
:103A4000002900D1EAE1002330789946002800D10E
:103A5000ECE1C84B4C460B93C74B454657460E937B
:103A60000AE0631C984622003B005946A84744469A
:103A70003078002800D187E001362528F1D10823CD
:103A80009A46043B9946023B9846013B00229C46DD
:103A90000D943078711C0300203BDBB2102B03D84F
:103AA0000B9C9B00E3589F460300303B89460D9CCE
:103AB000092B3AD9002398462A2800D1C1E00023D7
:103AC0009A462E284BD00300683BDBB2122B1ED83F
:103AD0000E999B00CB589F4663460E001A43D8E7C9
:103AE00043460E001A43D4E74B460E001A43D0E774
:103AF00010230E001A43CCE753460E001A43C8E7C2
:103B000080235B001A43FF3B9C467078E1444E469D
:103B100067284FD82428A4D90300253BDBB2422BC9
:103B20009FD896499B00CB589F46002394461E0081
:103B300000E00131B3009B195B001E180878303E8D
:103B40000300303B092BF4D90123624689469C4689
:103B50000023B0469A460E00E1442E28B3D130210E
:103B6000802049428C46C000024370784B46844412
:103B70006146092900D86CE12A2800D17AE10123A5
:103B80009C464E46E1449EE7A146A846BA46CA4531
:103B900003D801235B425344994653464A4659464B
:103BA0000020C047200025B0F0BCBB46B246A94665
:103BB000A046F0BD0300693BDBB20D930F2B00D98B
:103BC0004FE7012199408C466D49894661464B4635
:103BD00019400F91634649460B4200D028E10D9BE6
:103BE0000A2B3AD0072B00D03BE70C9B190008C9E1
:103BF0008846002B00D14BE121200243914614A9B5
:103C00008C461F220F2162448C4651460D950C9123
:103C1000A24615000F9902E020290CD0130064463B
:103C20001C4020003730092C00D807380131685477
:103C30001A090F2BF0D80C9B54460D9D9A460F91F4
:103C400033E10C9B02CB8846002947DB0C93012310
:103C50009C4670784E46E14431E70C9B02CB1493AE
:103C60005346002B00D138E19C4608780B000C909D
:103C70008C44002801D100F098FC894661469446A6
:103C800003E05A780133002A01D08B42F9D149462A
:103C900062465B1A0C900F93530500D520E1022376
:103CA000180010400D90134200D1CBE30D930B1B75
:103CB000B1469A465E460C9822003B003100A84768
:103CC00053460134185D0028F6D1B3464E460D9B8D
:103CD000002B00D0C7E1149B0C93C9E60C93012381
:103CE0009C46283849420243884670784E46E14453
:103CF000E5E670786C2800D17FE180235B001A43F1
:103D0000FF3B9C46E14402E780239B001A430123CA
:103D10009C467078E144FAE67078682800D173E137
:103D200080231A437F3B9C46E144F0E6672800D19C
:103D300003E1472800D15AE1452800D15AE1049215
:103D4000072142460C9B0392073352468B431900CE
:103D500002920CC92800009201930C9122003B00B2
:103D60005946FFF79FFB040082E6C046213A001047
:103D70006C55002078AD0010BCAD001008AE0010EE
:103D800041900000462800D1DBE004920721424622
:103D90000C9B0392073352468B43190002920CC9C5
:103DA0002800009201930C9122003B005946FFF736
:103DB00025F904005CE6631C984622003B00594646
:103DC0002520A847444653E60C9B04330D93631CFF
:103DD0009946920700D422E10C9B2200187859469C
:103DE0003B00A84743464444012B00D885E23300FA
:103DF000B8462E005F4625004C46994622004346B1
:103E0000013439002020B047AC42F7D12C00BB462A
:103E1000350047464E460D9B0C9329E6DB4B307828
:103E2000984600239946002800D012E60024AEE60A
:103E30006F2800D188E000D80BE31023782800D148
:103E4000CFE09A430A239C4600230F930A330D9335
:103E500080E05646B1008919490001330E181878E0
:103E6000303E010030390929F4D9B2461E00013331
:103E7000994628E60C9B023602CB8A46C943504637
:103E8000C917084082460C933078731C99461AE68D
:103E900010231000984311331843814680201300EB
:103EA000C0000340024200D1A9E64B460693082316
:103EB00005935346049310230393002302930F9B0F
:103EC000220001931CAB009359463B002800FEF7EB
:103ED0009FFF434604000C93CAE501235B42C3E6FF
:103EE0000F9B534501D953460F93022318001040EE
:103EF0000D90134200D1B7E10D93D1460B1B9A46AA
:103F00003300A1442E0022004D460C98B9465F466E
:103F10009B4608E04B463900541CB0475346185D99
:103F2000002877D022009542F4D15B46BB464F462D
:103F3000A94635004C461E00C9E680231B011A43E2
:103F4000FDE620231A4320E708239C4600230F9315
:103F500008330D9380231100DB0019401A4200D171
:103F600016E10D239A431000802302009B001A40A3
:103F70001492184200D0C2E1802302005B001A4074
:103F800091460C9A04320F92184200D0B7E24306D1
:103F900000D59FE1030600D419E30C9B1B8809930D
:103FA000002B00D0FCE110339843002900D1F7E149
:103FB0000023994643460593534604930D9B069070
:103FC00003930023D2E0582808D0622867D1022347
:103FD0009C4600230F9302330D93BBE720231A4323
:103FE000103B9C4600230F9310330D93B2E78023C0
:103FF0001B011A4320231A43A1E6C0239B001A4346
:10400000F31C9946B07882E5C0231A43F31C994605
:10401000B0787CE535005E46BB464F4657E64346E2
:10402000012B00D863E1631E43449A463300B9462E
:104030002E005F4655469B46A24622004B46013461
:1040400039002020B047AC42F7D135005E46BB4670
:104050004F46A14654460C9B4A46187859463B00A9
:104060004444A847D7E6A1460F9B984500D832E6BE
:104070004444E41A3300B8462E005F4625004C46FF
:10408000994622004346013439002020B047AC4213
:10409000F7D12C00BB46350047464E461BE6802331
:1040A0001000DB0018401A4200D10FE11121180066
:1040B0008A430D920D9A802311009B0019408C4673
:1040C0001A4269D1802311005B00194089460C997E
:1040D00004310F911A4200D0CAE113005B0600D5EB
:1040E000F0E013001B0600D459E20C9B00229B5EFB
:1040F000D9175A184A4092B2D90F0C91002B00D10F
:10410000F9E1100014AA944642461F231492524625
:104110006344A84616944D460400B946B2461F00B3
:10412000159201E0202D0FD020000A21FEF7A6F9FC
:1041300001357E193031317020000A21FEF79EF9D9
:1041400026000400092EEDD8149B4F46A94645468B
:104150009846159B56469A46169C0D9B06934346D9
:104160000593534604930A2303930C9B02934B46F7
:1041700001931CAB2200009359463B002800FEF738
:1041800047FE0F9B04000C9372E4C046612D0010A3
:104190000C239A431000E7E607220C9B0733934356
:1041A000013294469C4462460C920CCBD90F0F917D
:1041B0001100194300D191E0D91713911291514088
:1041C000109113995940119110981199129A139BBB
:1041D000801A99411090119114AA002394464246E6
:1041E0009946149252461F336344A846B246169429
:1041F0004E46109C119DB94615921F0001E0202EDD
:1042000010D0200029000A220023FEF775F901369C
:1042100030322B00BA550D0022000400002BEED1E5
:10422000092AECD8149B1094119545469846159B85
:104230004F46B14656469A46169C0D9B06934346FA
:104240000593534604930A2303930F9B02934B4613
:1042500001931CAB2200009359463B002800FEF757
:10426000D7FD0400FFF704FC0F9B984500D8C1E17F
:104270008023DB000D9343460F9A1B199B1A994626
:1042800033002E004D46B9465F469B460C912200F6
:104290004B46013439002020B047AC42F7D14346A9
:1042A0000C9901330F930B7835000C935E46BB4697
:1042B0004F46002B00D10EE50D9B002B00D1F6E4FC
:1042C000002319E60C9B1B781A0015E710239A436C
:1042D0000D92EFE60C9B1B78099361E6002399464B
:1042E0000028AAD1002200231092119374E70C9B9E
:1042F0002200187859463B00A8474C468BE50C9A9B
:10430000FA3BFF3B07329A430133994691444B46AF
:104310000C931368526815921A4306D110329043D9
:1043200000220992002900D081E06122810600D597
:104330004122D2B20A9214AA91460A9A00210A3A5C
:10434000149242461792524618925A460991B34621
:104350001F311E000F9B4944BA4619941A95002438
:10436000674698468946159D16901B920AE03032A2
:10437000D2B24B4601341A55A8454AD0202C4AD017
:1043800006000D003A00002330002900FEF7B4F8C3
:10439000D2B2092AEBD9149B9C466244D2B2E8E718
:1043A0006123820600D54123DBB20A3B0C934346CE
:1043B00014A91F228C46159353466244A046B24668
:1043C0004C461797A9461700099D0D9E1490169309
:1043D00008E03033DBB201343B55B5420ED3202C1C
:1043E0000CD0050031002800FEF748F8CBB20929AF
:1043F000EFD90C9A94466344DBB2ECE7159B4D462B
:10440000A14644469846169B564614989A46179FCE
:10441000D0E5B742B2D9179B57469846189B5E46DF
:104420009A461B9B09949B461698199C1A9D4346D5
:104430000593534604930D9B069003930023029328
:10444000099B05E70F9B984500D914E701330F93AB
:104450002DE41023110099430D91692800D0BAE092
:1044600080231000DB0018401A4200D122E61DE62E
:104470000C9B1B68DA0F1100002B00D18CE0DA17BF
:104480009818504014AA914642461F23149252464F
:104490004B44A046A946169704006546B2461F0045
:1044A0000C91159201E0202D0FD020000A21FDF77C
:1044B000E5FF01357E193031317020000A21FDF70A
:1044C000DDFF26000400092EEDD8149B44469846D3
:1044D0000C9BAC461900159B56464D469A46169FB6
:1044E0000D9B0291069343460593534604930A237A
:1044F000039363463CE6002800D02EE602E60C9BC0
:104500001B689946002B03D110339843002938D1FA
:104510006123820600D54123DBB20A3B0C9343465C
:104520001693534614A91F228C4617932B006244FE
:10453000A0464D46B246189799461700149C0D9E0A
:10454000159008E03033DBB201343B55B5420ED351
:10455000202C0CD0050031002800FDF78FFFCBB2D6
:104560000929EFD90C9A94466344DBB2ECE7169B19
:10457000149444469846179B56464D469A461598BD
:10458000189F43460593534604930D9B069003934F
:1045900000230293149BEBE50028A1D172E70C9B4A
:1045A0001B68D9175A184A40A6E580231000DB0083
:1045B00018409C460F901A420FD00220030013406F
:1045C0000F93104219D00023A1460F934CE50C9B8A
:1045D0001B680993E4E40A0034E402231800104045
:1045E0000D90134200D03EE54346002B00D042E63A
:1045F000FFF771FB01330F937FE463460D93F3E7FD
:104600000EB4012230B584B007AC08CC064D0100D1
:104610000094280052420394FFF702FA04B030BC21
:1046200008BC03B01847C046592D001010B50C0047
:1046300084B00394012402A902900093034813005C
:104640006242FFF7EDF904B010BDC046ED2F001037
:1046500010B5094A0300146884B0002C08D0012268
:1046600000910648524203A9A047012004B010BDA2
:1046700000F096F90020F9E76C550020DD2F0010BE
:1046800000BEFDE7094A03001068002805D008496C
:10469000C3188B4207D81360704706480449C318F3
:1046A00010608B42F7D901204042F5E74C510020C1
:1046B00000000420D470002010B5FFF7E1FFC046D1
:1046C00070B5FDF7C1FD074D074EB54209D2002474
:1046D000013E761BB60808CD984723000134B3424B
:1046E000F9D170BDFCA7001000A80010030010B5A0
:1046F000080011001B68984710BDC046F0B5C646BB
:1047000000B5437D07000C001600002B46D0002AA0
:1047100017DD0B780A2B24D000239846012E13D0E6
:1047200001252900635C01350A2B26D0B542F8D15A
:10473000464509DCA419013C23780D3B5A425341FC
:104740003B7580BCB846F0BD4346E018A419F11A89
:10475000013C3B68984723780D3B5A4253413B75D7
:10476000EFE7037D002BD7D102210F483B68984724
:10477000012EDFD001239846D2E7631E5B5C0D2B30
:10478000D4D0884504DA4346C91AE0183B689847F4
:10479000022105483B68A8469847C7E7036811000F
:1047A00020009847CDE7C04668AF0010F0B5C64678
:1047B0000B6806000C0000B5802B06D05A1C226046
:1047C000E418267180BCB846F0BD0F4B1D68002D63
:1047D00016D00B1D98460D4F02E02D69002D0FD00D
:1047E0002B68002BF9D03B68002B01D0AB42F4D1F1
:1047F000280041462268FFF781FF2D69002DEFD187
:1048000001220023DBE7C0463C5100204851002034
:10481000F0B54546DE464E465746E0B583B0914674
:104820001C0080460D00FDF7C5F80023304A121821
:104830004B41002B02DA01222E4B52422E49080036
:104840008A4605F07DFF07006B1C03D1404605F04A
:10485000ADFD0500002C27D0284E294B1C68002CEC
:1048600018D04B46002B21D1264B994602E02469F3
:10487000002C0FD02368002BF9D04B461B68002B6F
:1048800001D09C42F3D120002A004146B047246960
:10489000002CEFD1002F26D1280003B0F0BCBB467E
:1048A000B246A946A046F0BD174ED6E7154B99462D
:1048B0000A239B4602E02469002CEBD02368002BDE
:1048C000F9D04B461B68002B01D0A342F3D12A003C
:1048D00041462000B0476B465A462000DA71D91D88
:1048E0000122B047E7E7504605F0E2FED4E7C046B4
:1048F00040420F00FFFFFF7F50420020FD460010A6
:104900003C51002048510020ED460010F0B5CE4645
:10491000474680B583B06B460600DD1D2870FDF765
:1049200049F80023194A12184B41002B02DA0122E0
:10493000174B524217490800884605F001FF164BF5
:1049400081461C68002C14D0144F02E02469002C0E
:104950000FD02368002BF9D03B68002B01D09C427C
:10496000F4D1200001222900FFF7C8FE2469002CA1
:10497000EFD14B46002B05D1300003B0C0BCB94687
:10498000B046F0BD404605F093FEF5E740420F000B
:10499000FFFFFF7F504200203C5100204851002083
:1049A00070B5040005F002FD01230100050001229D
:1049B0002000FFF72DFF084B1C68002C06D0636811
:1049C000002B05D098472469002CF8D1280070BD31
:1049D0002469002CF3D1F9E73C510020F0B5CE4614
:1049E000474680B5A3B004000D00FCF7E3FF0023A9
:1049F000274A12184B41002B02DA0122254B524262
:104A0000254E300005F09CFE002322000193070094
:104A10002B00224801A9FFF709FE214B8046994649
:104A20001C68019B002B1AD0002C2FD01D4D02E0DA
:104A30002469002C0FD02368002BF9D02B68002BA1
:104A400001D0A342F4D12000019A02A9FFF756FE3B
:104A50002469002CEFD14B461C6800230193002CE5
:104A600006D06368002B0BD098472469002CF8D13E
:104A7000002F07D1404623B0C0BCB946B046F0BDB8
:104A80002469ECE7300005F013FEF3E70194EFE74B
:104A900040420F00FFFFFF7F50420020AD47001053
:104AA0003C510020485100200FB400B583B004A948
:104AB00001C90191FFF792FF03B008BC04B0184789
:104AC000F0B5D6464F4646461500C0B504000E0068
:104AD0003022002182B02800FEF732F9524A01202C
:104AE0009446737863441B052360F378984000F084
:104AF00037FEB178F77889464C4911238846F90288
:104B00008C46414660469A462268494B0140D3187C
:104B10001B0DDB004B44DB030B4351460B43494663
:104B2000081DA021C9058C4680001018BA016244F6
:104B300013613D4B50609C464B467078E760604483
:104B4000000520606360337963441B05236173793A
:104B50006361B379E3613378AB70F27B002A59D19A
:104B60000133DBB2EB70EB78324B334F9C46334B67
:104B700061462764E16363642A73B38949462387E6
:104B800000F0B0FB6169206900F0ACFBE1692069CD
:104B900000F0A8FB2A003100200005F0F1FDA87804
:104BA0000121C0B2FBF786FFE8780121C0B2FBF714
:104BB00081FFA8780321C0B2FBF78CFFE8780321BE
:104BC000C0B2FBF787FF0121282300222970EA5495
:104BD0006A461B4B01A81B49938005F089FD6A4674
:104BE0005A2301A81849537105F082FD6A461E2315
:104BF00001A81649537105F07BFD3C236A46144910
:104C000001A8537105F074FD02B0E0BCBA46B1468C
:104C1000A846F0BD013BDBB2EB70AB78074B0D4F04
:104C20009C46044BA4E7C04602050000FF7FE0FF5E
:104C30000000E0AF44220020302200201C2200208F
:104C400080D2FFFF0051002074550020BC7000206E
:104C5000946F002008220020F0B5C646060000B57B
:104C6000674D684C2A0084B031002000FFF728FF10
:104C7000022305202B74FDF727F8FDF7B7FF6249E3
:104C8000051CFDF798FFEC218905FDF791FF804693
:104C9000FDF7D4FF87B20020002F0DD03800FDF7BC
:104CA000A5FF011C4046FDF780FF8721C905FDF7E0
:104CB00096FFFDF7C3FFC0B24A23E054023BE75220
:104CC0005249281CFDF777FFEC218905FDF770FF9D
:104CD0008046FDF7B3FF87B20020002F0DD03800CB
:104CE000FDF784FF011C4046FDF75FFF8721C905E2
:104CF000FDF775FFFDF7A2FFC0B25223E054023B5F
:104D0000E7524349281CFDF756FFEC218905FDF7C2
:104D10004FFF8046FDF792FF87B20023002F0DD092
:104D20003800FDF763FF011C4046FDF73EFF872179
:104D3000C905FDF754FFFDF781FFC3B24E22A3540E
:104D40004C233449E752281CFDF735FFEC21890537
:104D5000FDF72EFF071CFDF771FF85B20020002D27
:104D60000DD02800FDF742FF011C381CFDF71DFF88
:104D70008721C905FDF733FFFDF760FFC0B2562359
:104D80000421E054244A023B2448E55205F0A8FCE3
:104D9000234B00211870234A002005F0A1FCB37BAF
:104DA000002B0ED0204B1868204C2378002B03D109
:104DB00000280FD1012323701D4804B080BCB846E1
:104DC000F0BDB068184C2060002811D0174C237833
:104DD000002BF1D1002301930123164A5B4202927A
:104DE000154A0092154AFCF73DFD01232370E3E7C5
:104DF000FCF7CAFD01220221FCF744FB2060D3E747
:104E0000246F002098550020001B374C001BB74A28
:104E1000001BB74C001B374BB0700020903C0020AB
:104E2000D17000206855002098460020D2700020E4
:104E30007456002010450020D12B002018FCFFFFE5
:104E4000012210B544000D4B24182401E418E2732C
:104E5000A0780221C0B2FBF709FEE0780221C0B2BF
:104E6000FBF704FEA0780321C0B2FBF711FEE07847
:104E70000321C0B2FBF70CFE10BDC046246F00201A
:104E800010B544000F4B24182401E418A078002129
:104E9000C0B2FBF7FDFDE0780021C0B2FBF7F8FDE2
:104EA000A0780021C0B2FBF7E1FDE0780021C0B29C
:104EB000FBF7DCFD64200021FCF786FD0023E37393
:104EC00010BDC046246F0020BC220C4B520170B5AF
:104ED000002600259C1802E0BC339C420DD01A78B5
:104EE0008242F9D15A788A42F6D1DA88002AF3D080
:104EF000DE805D73BC339C42F1D170BDA4570020AD
:104F0000F0B5C64600B598469378170005000E0028
:104F10009C465B0618D0BC22264B52011C009A18F6
:104F200002E0BC34A2422AD020788542F9D16178CF
:104F30008E42F6D1E1880029F3D021798C45F0D159
:104F4000012080BCB846F0BDBC221A4B52011C00A7
:104F50009A1802E0BC34944211D020788542F9D1ED
:104F600061788E42F6D1E1880029F3D021798C4511
:104F7000E6D021794906E3D0BC349442EDD11C003F
:104F8000BC235B01E21802E0BC34A24210D0E388EB
:104F9000002BF9D13900200005F0EAFB43462570CB
:104FA000A3706670BB78DB43DBB2DB09E370C7E755
:104FB0000020C6E7A4570020F8B50E001100BC225F
:104FC000134B52017F279D1802E0BC33AB4219D02E
:104FD0001C78A042F9D15C78A642F6D1DC88002C7E
:104FE000F3D01A79002A02D01A791742EDD10020A5
:104FF0002D2218710130DA72D870253A180005F0A8
:105000008FFBF8BD0348FFF7CBFC0020F9E7C04653
:10501000A457002008AA0010F8B505006846008BC8
:105020001F4C8446BC204001271850061BD002E0CC
:10503000BC34BC421ED026782000B542F8D1667838
:10504000B142F5D1E688002EF2D02679B242EFD1F6
:105050006246190005F064FBF8BD6678B1420FD0D6
:10506000BC34BC4206D026782000B542F5D0BC3412
:10507000BC42F8D111000B48FFF716FD0020EBE70A
:10508000E688002EECD02679B24202D02679760648
:10509000E6D1227151424A41E2700122E272D7E721
:1050A000A457002020AA001070B553062DD0BC24B0
:1050B000284B64011E1902E0BC33B34240D01D7876
:1050C0001C00A842F8D15D78A942F5D1DD88002DF9
:1050D000F2D01D79AA42EFD1637B002B34D001239B
:1050E000E373637B002B06D108E00120FCF7A0FCF2
:1050F000637B002B02D0A37B002BF6D1637BD8B25D
:10510000002B23D10023E37370BDBC24114B640139
:105110001E1902E0BC33B34212D01D781C00A84215
:10512000F8D15D78A942F5D1DD88002DF2D01D7946
:10513000AA42D1D01D796D06CED0BC33B342ECD19A
:1051400011000548FFF7B0FC0020DDE70023637382
:10515000D8E7C046A457002020AA0010F0B50029C7
:1051600010D00024FF26084A084F035D150A53405B
:1051700033405B00FA5A01346A408C42F5DBD0437D
:1051800080B2F0BD0020FCE7FFFF0000582C00209B
:1051900003BDC04610B50400FDF76AF8A04710BD76
:1051A00070B58024124B6402124A1C6013682342BB
:1051B000FCD00F20FBF78AFD002105000F20FBF734
:1051C00073FD00220C4B5A70D0220C4B12061C604F
:1051D000136DDB0704D4012420BF136D1C42FBD0E8
:1051E000D02329000F201B069B6DFBF75DFD70BDD2
:1051F00004200140040001407055002004300140AB
:10520000F0B5C64600B5040086B00F200E009046EB
:10521000FBF75CFD002105000F20FBF745FD002397
:105220000022009201930123029343460393D0236B
:10523000049605946F4600240026012102201B06D7
:10524000002C13D01A6D1042FCD05C6540BF1A6D63
:10525000114203D120BF1A6D1142FBD09A6DA242B8
:1052600009D00026B200BC58EAE79A6D1A6D1142C7
:10527000FBD140BFE6E70136062EF3D129000F200F
:10528000FBF712FD06B080BCB846F0BD0D4B0E4AD0
:1052900070B5934210D31C000C4A99180B4D0C4A60
:1052A00092686051FF20C00023500A4B0A482350E7
:1052B0000A48FFF7A5FF70BD01235B421C000849A7
:1052C000ECE7C0460008042000000420F4070000BA
:1052D00000ED00E095510010FC0700009151001016
:1052E000F3070000074B10B59C466044000D0128F1
:1052F00006D0054A800041180448FBF731FC10BD78
:10530000034AF7E70000E0AF5CAA0010105100204C
:1053100038AA0010F0B557464546DE464E46884648
:10532000E0B583B006000525FBF704FC4346844640
:105330005D571879334B344AF3181B0D9B00924686
:10534000D758012220248240241A013A002D41DB43
:10535000A54232DC1100A9400F422ED14146096816
:10536000894641468979002945D12C00AA409346B7
:1053700059463A40394241D1802189018846002866
:1053800016D06146A44634004E469946030001916A
:105390005100705A404500D24019A91812318900B5
:1053A000013208519A42F3D3019B64469C464B4616
:1053B0005A4617435246D75001E0012464426046E2
:1053C000FBF7C4FB200003B0F0BCBB46B246A946C5
:1053D000A046F0BD002C02DA10E0013C0ED3110013
:1053E000A14025000F42F8D141460968894641464F
:1053F00089790029BAD014246442E0E70924644280
:10540000DDE7C0460000E0AFF8500020F8B5DE460A
:1054100057464E4645460C00E0B515000600FBF722
:1054200089FB0523A179824622792068E356002969
:105430003DD1002B01DB9D4236D11E4B0127F318D5
:105440001B0D9B0098461C4997400B008B4641461C
:105450005B58013FAF401900994639401F4220D1A7
:1054600080239B019C46002A0BD04B00C45A644504
:1054700000D264196B1812339B0001319C518A428F
:10548000F3D84B463B431F0042465B469F50504675
:10549000FBF75CFB2800F0BCBB46B246A946A04621
:1054A000F8BD09256D42F2E70B256D42EFE71425A3
:1054B0006D42ECE70000E0AFF8500020F0B5DE46AA
:1054C00057464E464546E0B51600DC22924685B06A
:1054D0004B0002935B18DB00C518AA445246834672
:1054E00028001268CC30009202682B0001921C4AFE
:1054F000802094460E9C634480021860002C1DD0CE
:105500008023DB049946012398463300D835E027F1
:105510002E0055469A463F0203912000FCF780FF7B
:105520004A46430113432B6053464246C34013404F
:105530003B433360631E1C40EFD10399029B5B1811
:10554000DB005B441A000099DC321160019ACC3315
:105550001A6005B0F0BCBB46B246A946A046F0BDF5
:10556000CC300000F0B5DE4657464E464546E0B525
:105570001600DC22924685B04B0002935B18DB00DC
:10558000C518AA445246834628001268CC300092BF
:1055900002682B0001921C4A802094460E9C6344B2
:1055A00080021860002C1CD08023DB049946012364
:1055B00098463300D8352E0055469A46134F03912E
:1055C0002000FCF72DFF4A46430113432B6053464E
:1055D0004246C34013403B433360631E1C40EFD13F
:1055E0000399029B5B18DB005B441A000099DC32D4
:1055F0001160019ACC331A6005B0F0BCBB46B246CC
:10560000A946A046F0BDC046CC30000080E00000B6
:10561000F0B54E464546DE465746E0B583B089466E
:105620000CA984460D781F2A45D84946490088466A
:105630004944C900461837003400DC373868CC3498
:1056400083462068310001901C4880248246A402D1
:1056500051440C6069424D411E216D428D431849F1
:105660008A465544052B0CD9A0201F214005D83669
:10567000540104430532053B3C600A403560052B6C
:10568000F6D852019B06134342464A44D200624474
:105690001000DC3213600300D8331D605B461360DA
:1056A000019BCC300360002003B0F0BCBB46B24687
:1056B000A946A046F0BD05204042F5E7CC300000E9
:1056C0009FE00000F0B501258D400468AC43046004
:1056D000002B2ED04D006C18E400041926001F6822
:1056E000C83637609F68043677605F68DB68DC34F3
:1056F000376023606B18184DDB00AC468025C4185A
:1057000064442D0625602560144C0D1D8C4084607A
:1057100001242600AE40802508318C401F21AD01B8
:105720004519C0180A40D8302E602C600260002055
:10573000F0BD4D006C18E400041926008027C8361F
:105740007F023760C0273F03B760F82704367F0227
:10575000DC3437602360CDE7D01000000101010187
:10576000F0B5C646040000B5002813D00B4B002549
:10577000984601260A4F264203D164080135264285
:10578000FBD0424629003800FBF7EAF9640801D053
:105790000135F0E780BCB846F0BDC04678AA0010DD
:1057A000C8700020F8B500F047F90C23194DFF220E
:1057B000AB6705201849FBF7BFFA184C40220021BF
:1057C0002000FDF7BDFA4027002301262121144ABD
:1057D00066702783A260136063545F31618445392A
:1057E0006354104A10496360E2602787A1620B602E
:1057F0006362E26204F0DCFF80239B052E64EB64AD
:1058000090230A4A0120EA508022094B5202DA64AE
:10581000F8BDC04600001150812F002068510020C3
:1058200084001050000110508000105010D0010072
:105830000020115010B501210520FBF735FA10BDED
:1058400010B500220021024800F016F910BDC04634
:1058500088510020044B1970002904D08021902326
:10586000024A8902D1507047CD70002000201150AB
:105870000B785B0602D14B78052B00D070478A78F5
:10588000014B1A60FAE7C04600001150F0B5C64659
:10589000C87800B58007830F1800012B60D08F787F
:1058A0000A794B797F213940FC091B024E001343D2
:1058B000334D32195201AA1897700127674057706B
:1058C00000275B055B0DD7701383D076B846CA00FE
:1058D000012C32D02B4FBC468F016244BC46AC44F5
:1058E0006746BA6047461760002932D0264AC90089
:1058F00090466246414451603F223F339343022821
:1059000037D0224937190A687F01D3180B60204924
:10591000EF19FA608B422ED836197601AD19EB7E5D
:105920001C499B064A4013438022120613436A68AF
:105930001360012080BCB846F0BD174FBC468F01F4
:105940006244BC46AC446746BA62474617600029C9
:1059500008D1002364012C196360104BE360E8E771
:105960000020E7E70B4AC900904662464144516275
:10597000C2E75B00C5E7FCF761FCFA68CCE7C0460C
:105980006851002084001050040010507C55002005
:10599000FF0F1050000010508000105000011050F8
:1059A00010B504F005FF10BD10B57F200C0020409D
:1059B0004000E409110000191A00034B4001C0180F
:1059C00000F05AF8012010BD685100207F23180014
:1059D00000B5084083B00B4204D14B424B41084A0A
:1059E000013393668022C9094000064B40184001EC
:1059F0000021C018120104F0CBFE03B000BDC04668
:105A000000201150685100207F22130010B50B4078
:105A10000A4200D110BDC9095B005B1804485B0154
:105A2000C018002300220349C37004F0B1FEF1E75F
:105A300068510020FFF7FFFF80220A4B520410B587
:105A40001A60094B09491A6010000B689843FBD192
:105A50008022002152010648FDF772F90922054B08
:105A60005A6710BD00E0004000F0004008C0004050
:105A70000000105000001150002310B5C382013304
:105A8000828283760161040004F022FE002804D0A3
:105A900080219023074A8902D150200004F030FE73
:105AA000002802D00123237710BD200004F058FE07
:105AB000FAE7C04600201150002070477047C046EA
:105AC0007047C04600207047002070470020704794
:105AD0007047C0467047C0467047C0467047C046D2
