:020000041000EA
:1000000000B5324B212058609868022188439860DF
:10001000D860186158612E4B002199600221596106
:100020000121F02299502B49196001219960352056
:1000300000F044F80222904214D00621196600F024
:1000400034F8196E01211966002018661A6600F04E
:100050002CF8196E196E196E052000F02FF8012189
:100060000842F9D1002199601B49196000215960AB
:100070001A491B48016001219960EB211966A021F2
:10008000196600F012F800219960164914480160C1
:100090000121996001BC002800D000471248134993
:1000A000086003C880F30888084703B5996A0420EC
:1000B0000142FBD001200142F8D103BD02B5186610
:1000C0001866FFF7F2FF186E186E02BD00000240BE
:1000D000000000180000070000035F00212200005C
:1000E000F4000018222000A00001001008ED00E03C
:1000F00000000000000000000000000074B24E7A12
:1001000000200420F7010010C3010010C5010010F9
:10011000C1010010C1010010C1010010C101001097
:10012000C1010010C1010010C1010010C701001081
:10013000C1010010C1010010C9010010CB01001065
:10014000CD010010CD010010CD010010CD01001037
:10015000CD010010CD010010CD010010CD01001027
:10016000CD010010CD010010CD010010CD01001017
:10017000CD010010CD010010CD010010CD01001007
:10018000CD010010CD010010CD010010CD010010F7
:10019000CD010010CD010010CD010010CD010010E7
:1001A000CD010010CD010010CD010010CD010010D7
:1001B000CD010010CD010010CD010010CD010010C7
:1001C00000BE00BE00BE00BE00BE00BEEFF3058054
:1001D000103800BEF2EB887104AE001020AE0010A3
:1001E0003402001090A31AE700201F49086006C8D7
:1001F00081F3088810471D48006800282FD10DA4FE
:100200000ECC002902D000F012F8F9E71849194A7B
:10021000002000E001C19142FCD1174988471749ED
:1002200088471749884700BEFDE701C901C29A42C5
:10023000FBD3704720AE0010C00000207C2A0020B5
:10024000DCD700100000042000000420DCD70010E0
:10025000001004200010042000000000704709482E
:1002600004F046F80047000008ED00E0000000D070
:10027000802A002068520020ED2900100903001098
:10028000112B00105756000006005250ABB36053BC
:1002900090A7001006005250861C0302A0A7001071
:1002A000060052505422A29DB8A7001005005250DB
:1002B000DE65F468DCD70010F8B5C046064807498B
:1002C000091A8B10C90FC91810B5491003D0044B77
:1002D000002B00D0984710BD7C2A00207C2A0020EB
:1002E00000000000054B10B5002B03D00449054861
:1002F00000E000BFFFF7E2FF10BDC04600000000B5
:1003000050430020F8A1001000B585B0124803AB9F
:1003100002AA01A900F0B4FB002803D10F480E493E
:1003200002F0FAFB039A0299019800F06DFB0A2093
:1003300001F0BCFC05F0C2F8094805F013F90020F3
:1003400005F01EFD01200021404205F08FFD002038
:1003500006F042FBF6E7C046C0D40100F8A1001049
:100360007903001000B591B040226946002006F0E4
:10037000FBFA11B000BDC04630B50A2085B001F0CF
:1003800095FC6A461100094B31CB31C11B68012035
:100390000B60074907F032FE012007F05FFE0120E5
:1003A0000021404207F0BAFEF9E7C046DCA3001086
:1003B000004C0400F0B5CE46474680B5C9B005AE46
:1003C00005000F0032001D4B13CB13C2390028006B
:1003D00008F08CFF12236B44994604AB9846040046
:1003E00019004A46280007F015FE4B464246A00079
:1003F00080591B881288124902900197009508A81D
:1004000003F02AFF013C020008A9002006F020FBAF
:10041000E4B2002006F0E0FA012C04D949B0C0BCD7
:10042000B946B046F0BD3900280008F06FFF00283B
:10043000F4D11E22034906F00BFBEFE7ECA30010FA
:100440002CA2001060A2001010B5094CC0B00B0027
:1004500002002100684603F0FFFE6946020000200A
:1004600006F0F6FA002006F0B7FA40B010BDC0461C
:1004700080A20010F0B5D6464F464646C0B58EB0B5
:1004800005000E00170008F031FF040001283ED0DF
:10049000022830D10123FB5639789A460223FB56B5
:1004A000CA079C461F23D21713404A07D21791460A
:1004B000202248460C40FF7861424C4110402421E4
:1004C00002007FB250460497674664428C432D3247
:1004D0005234A8492D330290009203972A000194C8
:1004E00006A803F0B9FE06A90200002006F0B0FA43
:1004F000002006F071FA3100280008F007FF0028FC
:1005000032D00EB0E0BCBA46B146A846F0BD3B00C2
:1005100000220121002006F08BFCBB78002B00D0CC
:10052000F9E000239946944CFB78002B00D0BEE004
:100530003B79002B00D088E07B79002B4ED1BB7932
:10054000002B00D01EE1FB79002B1BD14B46002B6A
:1005500040D139000822200004F07EFB3100280041
:1005600008F0D4FE0028CCD11E22844906F070FA8F
:10057000C7E70122A1789146994200D006E1FB79B4
:10058000002B27D0A1789942E0D0E1789942DDD0C4
:1005900021799942DAD061799942D7D0A1799942EB
:1005A000D4D0E1799942D1D022213A7874481140CF
:1005B0004A1E91415B00C018435C06AA9046137026
:1005C000002BC3D00A2B00D121E10122414600209B
:1005D00006F03EFA002006F0FFF9BAE7A17899424A
:1005E000ADD0E1789942AAD021799942A7D061791A
:1005F0009942A4D0A1799942A1D0E17999429ED0A3
:1006000022203A785E491040421E90415B00C91892
:100610000B5C06AA90461370002B90D00A2B00D1D9
:1006200007E101224146002006F012FABB79002BB7
:100630009FD1FB79002BCDD0A2789A42CAD0E27824
:100640009A42C7D001229146A2E7A178994200D1EF
:1006500072E7E178994200D16EE72179994200D1A1
:100660006AE76179994200D166E7A179994200D1A0
:1006700062E7E179994200D15EE722203A78404969
:100680001040421E90415B00C9180B5C06AA9046C0
:100690001370002B00D14FE70A2B00D1D5E00122C7
:1006A0004146002006F0D4F90123994644E7A17899
:1006B000994200D13CE7E178994200D138E72179AD
:1006C000994200D134E76179994200D130E7A179AC
:1006D000994200D12CE7E179994200D128E7387896
:1006E00027498446222062461040421E90415B000A
:1006F000C9180B5C06AA90461370002B00D117E7AF
:100700000A2B00D19BE001224146002006F0A0F90F
:10071000012399460CE7184CA2789A4226D0E27839
:100720009A4223D022799A4220D062799A421DD0EF
:10073000A2799A421AD0E2799A4217D022223878C6
:100740000F490240501E82415B00C9188B5C06AA0B
:1007500090461370002B0AD00A2B64D00122414628
:10076000002006F075F901239946DDE6002399463D
:10077000DAE6C046A8A200103C51002060A200109A
:10078000DCA20010A178994200D1DCE6E178994220
:1007900000D1D8E62179994200D1D4E66179994215
:1007A00000D1D0E6A179994200D1CCE6E179994215
:1007B00000D1C8E622203A7827491040421E9041D5
:1007C0005B00C9180B5C06AA90461370002B00D181
:1007D000B9E60A2B21D001224146002006F038F963
:1007E000FB79002B00D1F5E6A2789A4200D1F1E620
:1007F000E2789A4200D1EDE622799A4200D1E9E608
:1008000062799A4200D1E5E601229146C6E60122CC
:100810001249002006F01CF9D7E601220F490020FA
:1008200006F016F9D7E701220C49002006F010F96E
:1008300094E701220949002006F00AF9F1E60122B5
:100840000649002006F004F95DE701220349002073
:1008500006F0FEF823E7C046DCA20010A4A20010B8
:1008600000487047D8A400100048704730A400101A
:1008700070B5002822D0042829D8164B8000C5580E
:10088000280009F0CDFAC0B2041C1F2814D8C026D5
:10089000E4B2631CDBB25B00B6001E43002808D044
:1008A00000230D4AE95C01331180D9B202328C4237
:1008B000F8D80A48068070BD1F24E8E7C126054B1A
:1008C00002220548196804F0C7F9B600F1E70020D4
:1008D000F1E7C046182400202E3100202C310020E2
:1008E0000048704794A400107047C046002070472D
:1008F0007047C0461300064A002010B5914200D050
:1009000010BD10221900034804F0A6F90120F7E7F2
:10091000004C04002C24002010B5024804F0E0FB39
:10092000012010BD2C24002010B50138C0B204F005
:100930009FFC10BD10B50138C0B204F0BDFC10BD65
:10094000D021013810B5C0B283000C4A1B18DB005F
:100950009B1809069C784A68DB7848680121D840D2
:100960000123E240184048401340C0B24B404000D1
:10097000184340B2431E9841C0B210BDDC50002065
:100980000138C0B28300044A1B18DB009B18187B97
:10099000012358407047C046DC50002010B5013894
:1009A000C0B204F0A3FC10BD7047C04670B50D0086
:1009B00082B0040001A92800160007F0E5FE6B468E
:1009C0005A790023002A05D06B46DB79013B5A4255
:1009D0005341DBB2013C32002900E0B204F0A4FC38
:1009E00002B070BD10B582B004AC24880138009408
:1009F000C0B204F0F7FC02B010BDC04610B501381B
:100A0000C0B204F0BFFC10BDF0B583B005000E000D
:100A1000140000F099F9002801D003B0F0BD154F83
:100A200001223B0001210097053001F081FD3300D8
:100A30002A0000940121104801F06CFF21002800D9
:100A4000714303F0AFFC04000C4B00220093022121
:100A5000042001F06DFD23000022012100940520F7
:100A600001F066FD3B00022200210097062001F004
:100A70005FFDD2E7006CDC0200800240001BB70083
:100A8000F0B54E4691467D4A45469046A0225746CF
:100A9000DE465200E0B51700424606008A4683B0A3
:100AA00000920193009B764A934209D9754A009BB4
:100AB0009446013F634400930F2FF3D100206EE072
:100AC0001D00714B31219C466544280003F06AFCEF
:100AD000864200D1BCE00724631EB8469B4637001F
:100AE0002E005D4665433000290003F05BFC874221
:100AF00046D0A31E9B46022C00D1ADE02D1B290041
:100B0000300003F04FFC874250D0E31E9B46032C7D
:100B100052D02D1B2900300003F044FC874253D0F3
:100B2000231F9B46042C55D02D1B2900300003F0B9
:100B300039FC874259D0631F9B46052C5BD02D1B87
:100B40002900300003F02EFC87425CD0062C5ED0DA
:100B50003000E91F03F026FCB84263D024213000A6
:100B60000624242503F01EFC874261D005239B4602
:100B70005D4665433000290003F014FC8742B8D17C
:100B80000029B6D15D46D346C246019B52463F4935
:100B9000012051435A4611604A4614601D6003B05B
:100BA000F0BCBB46B246A946A046F0BD0029E9D03C
:100BB000E31E9B46032CACD102240425B3089F42BC
:100BC00036D001239B468CE70029DBD0231F9B46B0
:100BD000042CA9D1092130000324092503F0E2FBEC
:100BE000874225D002239B467BE70029CAD0631F9A
:100BF0009B46052CA3D10424102533099F4217D00E
:100C000003239B466DE70029BCD0062CA0D11921F7
:100C100030000524192503F0C5FB874208D00423C2
:100C20009B465EE7002923D0052306249B4658E710
:100C3000AB4635003E0047465946280003F0B2FB5C
:100C4000002900D048E7D3462500BA46019B9DE71E
:100C5000312307249B46EFE735003E004746B54267
:100C600000D023E7D3460124C2460125019B8DE72E
:100C7000D3460724C2460125019B87E750262F0053
:100C800050F80C0020D1FFFFB0710B00001BB70023
:100C9000094A10B594464024830063441A68C00092
:100CA0006240803414408022520113431C60034B85
:100CB0009C466044416010BD04C0014000400140BA
:100CC000074B80009C4660440368C90092000A43B9
:100CD0005A400C231A4080235B0103431A6070477B
:100CE00004C00140074BC0009C46604403680904EF
:100CF0005940C0239B02194080235B0103431960C4
:100D00007047C04604400140064B80009C4660444A
:100D100003684B400121194080235B0103431960A4
:100D20007047C04604C00140064B80009C466044AA
:100D3000036809015940802330225B010A400343C4
:100D40001A60704704C00140024B18688007C00F4A
:100D50007047C04600C00640EFF3108072B6034AE9
:100D60001368002BFCD0BFF35F8F70472C0100D0BD
:100D7000BFF35F8F0022024B1A6080F31088704728
:100D80002C0100D070B5EFF3108C72B60D4D2B68AE
:100D9000002BFCD0BFF35F8F0724CB08C618C05CC4
:100DA00001230C40A3401C000440034207D1184318
:100DB0003070BFF35F8F2C608CF3108870BD100013
:100DC00001F0AAFE2C0100D0F8B54746CE46884671
:100DD00080B5EFF3108C72B6214D2C68002CFCD03E
:100DE000BFF35F8F9A422CD8D4080727055D0619F8
:100DF00001241740BC402C421FD0072101278946FF
:100E000009E0D408055D06194C4639001440A1409C
:100E10000C00294211D001329342F2D2012040420B
:100E2000BFF35F8F00220E4B1A608CF310880028EE
:100E30000FDBC0BCB946B046F8BD25431000357085
:100E4000EEE7BFF35F8F00232B608CF31088012047
:100E500040424346002BECD0089801F05DFEC046AE
:100E60002C0100D00021044B044ABFF35F8F02C362
:100E70009342FAD17047C046000100D0800100D0F3
:100E8000044A1078431CDBB2172B00D910231370CF
:100E90007047C0463C24002010B5064B064C82B07B
:100EA0000100009318221F232000FFF78DFF02B0DE
:100EB00010BDC046ECA40010E43E00200123834096
:100EC000002904D0034A1360034A13607047034AA1
:100ED0001360FBE780E200E000E100E080E100E079
:100EE00001228240034B1B6813405A1E9341D8B223
:100EF0007047C04600E100E0024B10309B68800064
:100F0000C058704700ED00E070B50D00EFF310869B
:100F100072B60F4A1368002BFCD0BFF35F8F0D4BE6
:100F200010309B6884001B590B4A934203D09D42AA
:100F300001D001F009FE074B9B681D51BFF35F8F85
:100F4000BFF35F8F0022024B1A6086F3108870BDDA
:100F5000240100D000ED00E0CD010010F0B54E46B8
:100F60004546DE465746E0B583B006000091904600
:100F7000EFF3108B72B6654A1368002BFCD0BFF3F9
:100F80005F8F0025624B5D579A46002D00DA79E0AD
:100F900052466B005F4C5F19BF000193E3199946FD
:100FA0009B79103613705C4BB6009B6899590B1BEC
:100FB0002F2B33D9594B994200D07CE0019B02374B
:100FC0009C46574B6544AD006353564BE719043BB1
:100FD000DB1B554A1B055B0D651913436B80534B97
:100FE0000121AB80FF23AB714346EB71009BAB60EB
:100FF0004B460B431900484B9B689951BFF35F8FD9
:10100000BFF35F8F0022414B1A608BF3108803B04F
:10101000F0BCBB46B246A946A046F0BD01200A007E
:101020008243D379434549D9BC464746884607E0C1
:101030005800C01880002018C179B94228D9020090
:101040000623D356002BF3DA9A46131D9C464146DD
:10105000B846374F484663460438C01A0005324B3D
:10106000400D1843019B908095715A195346920088
:10107000A418A37143462F4AE371009B2260A78006
:10108000A360B8E701F060FD002553465D577FE798
:101090009A464146131DB84667469C4690880437D9
:1010A00040050015E7196044C01BE0270005400D0E
:1010B0003F020743CEE701F047FD7FE713001E49DB
:1010C0001B1B5B415943090D154BBD1CE353154BCD
:1010D0006519043B5B1B1B05134D5B0D2B43AC4695
:1010E0004D466B8065460437131FE719DB1B1B0554
:1010F0005B0D1D434B4699714146D97100999D8006
:10110000996049460B4B0143136074E7240100D0FA
:10111000635200204024002000ED00E0CD010010CB
:1011200000A1FFFF7024002000E0FFFF01BDFFFFD2
:1011300001BD000001488047AAAA0000F0B5DE46C4
:1011400057464E464546E0B50C0083B0EFF3108895
:1011500072B65D4A1368002BFCD0BFF35F8F5B4B08
:101160005B499A68030010339F00D5598D4239D0EE
:10117000A5424AD0574EAA1B2F2A33D801229246A5
:10118000824091464846544A1268104001904846B1
:10119000524A1060BFF35F8FEFF305829346002A37
:1011A00035D0934201D001F0CFFC2A0053469A4338
:1011B0009068844208D175E04B005B189B00F318DF
:1011C0009868A04234D01A00062151560029F3DA5B
:1011D000844253D0019B002B26D04A46404B1A60D4
:1011E0003D4B1A60394B9B68DD51BFF35F8FBFF3F6
:1011F0005F8F0022344B1A6088F3108803B0F0BC74
:10120000BB46B246A946A046F0BD0D00EAE72A005B
:1012100053469A4390688442D6D106201056130054
:10122000002809DA0D0031E04A462C4B1A60D9E754
:1012300006201856002822DB420011188900741875
:101240008A46A1689960E179D97106216156997140
:10125000002925DBA488F11A6405241554440919D2
:10126000E0240905490D24022143998013181D4AE1
:101270009B001178F31899711070ABE71300594671
:10128000002914D1FF3191711749918015490A78CD
:101290009A71164A9B1B5B415A43120D0A7099E7DB
:1012A0001349E2E70620105613000028C4DA114A59
:1012B0001149D21A083A5002400D014399800F4952
:1012C00052080A43DA8085E7240100D000ED00E0EF
:1012D000CD0100104024002000E100E080E100E0AA
:1012E00080E200E06352002001BDFFFFAAAA0000D7
:1012F00001BD00007A24002000F0FFFF00F8FFFF8E
:1013000070B5EFF3058101240443EFF3108C72B63E
:10131000214A1368002BFCD0BFF35F8F1F4B0500E1
:101320001F4AED1A6D416A43120D1E4D8900AE68C9
:1013300052B27658A6421CD00621595691421CD072
:1013400012215956914222D01E215956914220D045
:101350002A2159560324914210D0134B19781A7040
:101360008171BFF35F8F00220B4B1A608CF31088E2
:1013700070BDAB680D4C5C50EFE7002461000919AB
:1013800089005B18FF21997109499980E5E70124DB
:10139000F4E70224F2E7C046240100D040240020F4
:1013A000AAAA000000ED00E063520020CD01001069
:1013B00001BDFFFF054B064A1360064A13605360E8
:1013C0009360D36013615361936170478080808024
:1013D00000E400E004E400E0024B9C466144890024
:1013E000016070474000003410B50400FFF748FD6D
:1013F00001002000FFF7F0FFFF232371BFF35F8F91
:1014000010BDC04610B50400FFF73AFD01002000F2
:10141000FFF7E2FFFF23A380BFF35F8F10BDC0463D
:1014200010B504000120FFF737FD034BC3189B00E4
:101430002360BFF35F8F10BD4000003483680B480A
:1014400010B58446614462441201090159189B1881
:101450005C684A680120944201D802D00020C0B2E2
:1014600010BD1A680B689A42F9D8F7E7FFFFFF0F23
:1014700010B508000B690C009847002802D02068BE
:10148000616810BDE06000210020FAE70A4B19688E
:10149000EFF3108072B60A68002AFCD0BFF35F8FAA
:1014A0001B68BFF35F8F00221A6080F3108840BF73
:1014B000002000217047C04648520020F8B557462A
:1014C00045464E46DE46E0B598460CAB1C780DAB63
:1014D0001B78070091469A460568002C5AD1AC7BD0
:1014E000002C3BD0660029683619033E89194B78D9
:1014F000AB73002B00D1EB7300238B704B700B7020
:101500002B4BE218BB6812019B184A461A604246F0
:101510005A600A9A9A600B9ADA6000238B704B70BB
:101520000B706B7B9B46002B27D022006B685946C3
:10153000A86898475B465B005B442A68033B002829
:1015400012D058469619B070D118D35C002B00D039
:1015500073705B460C706B735C450FD0F0BCBB4680
:10156000B246A946A046F8BDD3189C709119925D69
:10157000002A00D05A705B460B706C734A46434693
:10158000387D00F051FD051E0AD10E9B002BE5D0E1
:101590001D70E3E7660029683619033E8919AFE735
:1015A0005346002BF1D12100386800F085FFECE7AD
:1015B000FFFFFF0FF0B5DE4657464E464546002377
:1015C000E0B58BB00893684B8200D45800239B464B
:1015D000099000F057FC02000B006068EFF3108ADE
:1015E00072B6564601680029FCD0B246BFF35F8F41
:1015F00021684F7B8C46002F2ED0A5685B49A946F9
:1016000079180901894449460868496805000E00AF
:10161000AD1A9E41002E5FDD02000B00099800F01C
:1016200003FD00230022994600230692079300231E
:1016300098466368BFF35F8F5A461A608AF3108832
:101640004346002B12D10028C3D10BB0F0BCBB46DF
:10165000B246A946A046F0BD0023002299460023C9
:1016600006920793002300209846E2E7089B49462C
:1016700018023843C047626805000E00EFF3108A75
:1016800072B61368002BFCD0BFF35F8F002E41DBD6
:101690002B00334302D02369002B56D12368D97B1A
:1016A000002905D01A68480041185218033A5770AB
:1016B0009A7B002A00D19F73DF73E268013FD35DFC
:1016C0000133D3555B4623616368BFF35F8F5A468E
:1016D0001A608AF310887CE7002E02D1002D00D01A
:1016E0009AE70021604600F065FE4B461A685B6889
:1016F000069207934B469B6898464B46DB68994693
:10170000E368DB19013B1B7808931B020343236149
:1017100000208EE72369002BC0D0069A079B80210A
:10172000521BB34109068B4202D30122104B524295
:101730000021049101310391494601914146200065
:1017400002970091FFF7BAFEBCE700F09BFB2A006E
:10175000330012184B41802109068B42E8D3012245
:10176000034B5242E4E7C0462C510020FFFFFF0F1D
:10177000FFFFFF7F10B5144C6368002B04D00A21D3
:101780001248FFF729FE10BD2300114A10212068DE
:1017900000F02CFD032000F069FB032000F0ACFCFE
:1017A00003200C4900F0FAFBFFF76AFB0A4B9C464A
:1017B00003232375D0231B061B6860446375074B06
:1017C00080006060DC60DAE7882400204852002056
:1017D0003D140010B5150010400000342C510020BD
:1017E000004870478824002070B5050018200E00BE
:1017F00003F0E6F9154904000200300000F0C6FCD1
:1018000010212060300003F0F9F90121A0603000C0
:1018100003F0F4F9E060280000F028FB280000F055
:101820006BFC28000A4900F0B9FBFFF729FB094BC4
:1018300025759C46D0231B061B6860446375064BC8
:10184000AD0080006060EC50200070BD3D140010C1
:10185000B5150010400000342C510020F0B557465B
:101860004E464546DE46E0B585B0019310AB1B7889
:101870000600039300239A46984600927268EFF39D
:10188000108B72B61368002BFCD0BFF35F8F3568E6
:10189000AC7B002C00D16EE067002B683F19033F42
:1018A000DB195A78AA73002A00D1EA73484AA118B2
:1018B000B2680901521800980199106051600E99A0
:1018C00091600F99D16042469A705A701A706B7B82
:1018D0009946002B00D16BE022006B684946A8684E
:1018E00098474B465B004B442A68033B002856D080
:1018F0004846D719B870D118D35C002B00D07B7044
:101900004B460C706B734C4553D0F3681B19013B6D
:1019100018787368BFF35F8F42461A608BF31088A4
:101920005346002B08D10002204305B0F0BCBB4653
:10193000B246A946A046F0BD039B002B46D00E9BA5
:1019400000200F99984703000B433FD004000D1E61
:101950001ADA009A019B121BAB410092019380227C
:101960001206934204D301231A4C5B420093019464
:10197000039B9A4682E77368BFF35F8F1C608BF30B
:10198000108801204042D0E700F07CFA8022001944
:1019900069411206009001919142E9D3E3E7D3181F
:1019A0009C70D119D25D002A00D05A704B460B7042
:1019B0006C73307D009A019B00F036FB8246002854
:1019C000A3D02100306800F077FD9EE70020ACE74F
:1019D000FFFFFF0FFFFFFF7FF0B557464E46DE4685
:1019E00045461100E0B585B006009C46109F19439E
:1019F00000D1E9E06146DB170193009353401C00DE
:101A0000019B4B401D0000980199241A8D416346AB
:101A10000E997B600F9BBE607B6139613A6000F07C
:101A200031FA8023001969411B0600900191994207
:101A300004D30123694C5B42009301940023984630
:101A4000674B1097039300239946109B3700464637
:101A500098467A68EFF3108B72B61368002BFCD0AF
:101A6000BFF35F8F3D68AC7B002C00D179E0630051
:101A70001B19033B1A00944602932B6863445A785F
:101A8000AA73002A00D1EA73564AA118BA6809015C
:101A90005218009801991060516003999160414675
:101AA000D1604A469A705A701A706B7B9A46002B26
:101AB00000D17BE022006B685146A86898475346E6
:101AC0005B0053442A68033B002800D164E0D1182E
:101AD0008C465146029810188170D35C002B00D0C0
:101AE000437063461C7053466B73350054455ED09B
:101AF000FB687A681B19013B1B78BFF35F8F49466F
:101B000011608BF31088002D0CD147461B02234334
:101B100001352800FB6005B0F0BCBB46B246A946C3
:101B2000A046F0BD434640461B699847061E24D098
:101B300043460CCB100018434CD014001D1E1FDA76
:101B4000009A019B121BAB41009201938022120666
:101B5000934200D27DE70123204C5B420093019425
:101B600077E73E0047467368BFF35F8F1C608BF3D7
:101B70001088012300255B42CBE747460023C8E7D6
:101B800000F080F9802224184D411206009401953E
:101B9000954200D25DE7DEE70298D3189C701118D9
:101BA000125C002A00D05A7053460B706C73387D5B
:101BB000009A019B00F038FA051E00D198E7210039
:101BC000386800F079FC93E7002301240025012206
:101BD0009C461CE74746350000239AE7FFFFFF7F3E
:101BE00071140010FFFFFF0FF0B504000D00062672
:101BF0007642F717C64636196F4100B584B08F425A
:101C000014D811D000F03EF932003B00121A8B417B
:101C1000002B15DC002B3ED02000290000F0AEF98F
:101C200004B080BCB846F0BD8642EBD90026002740
:101C300000F028F932003B00121A8B41002BE9DD3D
:101C4000002302930193154B3200009314483B008C
:101C5000FFF704FE0028DFDB00239846BC46114A4C
:101C6000114F7B6A9C4504D8B96AB142D4D29C45D5
:101C7000D2D11168EFF3108072B60B68002BFCD044
:101C8000BFF35F8F1368BFF35F8F4146196080F326
:101C9000108820BFE5E7002ABED0D1E78D140010E0
:101CA00088240020485200200040054070B50600FE
:101CB00000F0E8F8FA2204000D00002330000021B3
:101CC000920002F0DDFE8023001969411B06994253
:101CD00002D3012002494042FFF786FF70BDC04693
:101CE000FFFFFF7FF0B5EFF30583CE46474680B593
:101CF00005000C0085B0002B12D02A4A0020536A40
:101D0000A34203D3926A0130AA4204D305B0C0BCF7
:101D1000B946B046F0BD1B1B5A1E9341D8B2F5E739
:101D2000214E02930193214B0200009330000B00DF
:101D3000FFF794FD031EE0DD20BF7168EFF310870D
:101D400072B60A68002AFCD0BFF35F8FDAB29446FD
:101D5000FF2230681A40417B61450FD001688946F7
:101D60005100884649469044414403398978002906
:101D700004D13269934209D1316107E0F1681B0A4D
:101D80008A18013A1278DBB29A4207D07368BFF31F
:101D90005F8F00221A6087F31088AEE7614600F07B
:101DA0008BFBF3E700400540882400208D140010D1
:101DB000F0B5EFF30582D6464F4646461000C0B553
:101DC0001038EFF3108872B6214C2368002BFCD03A
:101DD000BFF35F8F0123190081401E4D1F0069630F
:101DE000AA461D4D29601D4D2E78AC463500C540D4
:101DF0002F402B4215D053465F6A194B8500EB5894
:101E00009F4218D36246174B8E43EB581670BFF3B0
:101E10005F8F0022226088F31088002B06D098473D
:101E200004E0BFF35F8F276088F31088E0BCBA46F8
:101E3000B146A846F0BD0C4B92009C466244136824
:101E40001360BFF35F8F0023236088F31088EDE7F2
:101E5000280100D0004005403C700540665200203B
:101E60004C520020D43E0020D03F054010B5034B1B
:101E700001001800024AFEF785FF10BD60520020E5
:101E800008A50010034B596A0A00986A596A8A42E9
:101E9000FAD170470040054070B5002806DB1C4AA7
:101EA000916A936A5B1A8342FBD370BD04000025DC
:101EB000174A536A1900966A536A8B42FAD1300066
:101EC000190024184D41AB4218D9114B5B6A1C0014
:101ED0005A1C0AD0012301246442E5175B420C49D5
:101EE0004A6A9A42FCD39A42DFD1094A02E0516A17
:101EF0009942DAD1916A8C42F9D8D6E7AB4201D146
:101F0000A642E2D8024A2B00526A9542E7D8EAE795
:101F10000040054070B504000D00174A536A1900CF
:101F2000966A536A8B42FAD13000190024184D4149
:101F3000AB4216D813D0104B2A005B6A9D4203D9DE
:101F40000D494B6A9342FCD3934207D10A4A02E0FF
:101F5000516A994202D1916AA142F9D370BDA64259
:101F6000E9D9054B5B6A1C005A1CEFD00122012401
:101F70006442E5175242E3E700400540064A536ACF
:101F80009942FCD807D1044B02E05A6A914202D12F
:101F90009A6A8242F9D370470040054070B5040048
:101FA0000D00EFF3108672B61A4A1368002BFCD0AE
:101FB000BFF35F8F002D1BD02000FEF79DFF164959
:101FC00081420AD02000FEF79FFF01212000FEF78A
:101FD00075FF0123A340114A1360114BA400E55083
:101FE000BFF35F8F00220B4B1A6086F3108870BD21
:101FF0000121A1400A4BA200D5500A4B20001A78BB
:102000008A4305491A70FFF799F800212000FEF76E
:1020100055FFE5E7280100D0B11D001038600540EC
:10202000D43E002066520020F0B54F46D6464646C4
:10203000C0B507002B4C616A0D00A66A616AA9420F
:10204000FAD18B4208D805D00120E0BCBA46B1468F
:10205000A846F0BDB242F7D9EFF3108A72B6224813
:1020600001680029FCD0BFF35F8F0125BD401F49E7
:102070001C4C8846097889462943C9B28C4641469A
:1020800060460870391D890065630A511849B80017
:102090004350216A0020294219D0616A0800A66ACB
:1020A000616A8142FAD18B4219D801D1B24216D865
:1020B000CC450BD00B4B1F221D625D6301233A40C0
:1020C00093400C4A136043464A461A700120BFF3FE
:1020D0005F8F0022044B1A608AF31088B5E7002056
:1020E000F5E7C04600400540280100D066520020B8
:1020F0004C52002080E200E0EFF3108C72B60A49E7
:102100000B68002BFCD0BFF35F8F01238340074A8D
:102110000748136202789A430270BFF35F8F00236F
:102120000B608CF310887047280100D000400540F8
:102130006652002070B506000D00140000291DD065
:10214000002A12D073688068984762006B001219E9
:102150005B193168033A033B002808D08A18957050
:10216000C818CB5C002B0BD10470280070BDCB18B5
:102170009C7088188A5C002A05D105702000F5E75C
:1021800053700470F1E75A700570F7E7F0B5CE466A
:102190000700894600B510210120160002F02EFD2F
:1021A00003210500380002F029FD4B466B60002337
:1021B000FCB26B73013328602C73AE60AB73EC73AD
:1021C000012C06D9421C0133DBB2137003329C424E
:1021D000F9D1FF233B405A00D318C6180023033E11
:1021E0002800737080BCB946F0BDC04610B583604E
:1021F0000023CCB243730133426004738373C4730E
:102200000068421C012C05D90133DBB21370033284
:102210009C42F9D1FF230B405A00D318C018002369
:102220000338437010BDC04670B505000C1E07D0C2
:10223000630001681B19033BCB185A78002A01D1AF
:10224000200070BD500080180338091800204E7817
:102250004870210058702800FFF76CFF310004001F
:102260002800FFF7E1FF0600002C20D00028E7D06F
:10227000320021006B68A8689847720063009219C9
:102280001B192968033A033B002808D08A18947068
:10229000C818CB5C002B00D053700670D0E7CB1869
:1022A0009E7088188A5C002A00D05A70047034002E
:1022B000C6E7C046F0B557464546DE464E46E0B551
:1022C0000D006F0001687F19033F0400C85D83B0F3
:1022D0000192CA19002850D043001B18033BCB18A9
:1022E0005E78B446002E1AD1019E002E42D0E67BC5
:1022F000002E04D073009B19CB18033B5D70A37BA9
:10230000002B00D1A573E57300282FD10023537053
:1023100003B0F0BCBB46B246A946A046F0BD720071
:102320006244033A8A1851788846002151708946E0
:102330005970320001002000FFF7FCFE4346824640
:10234000002B07D05B0021684344033BCB185A782D
:10235000002A16D1424651462000FFF7EBFE2168C5
:10236000019BCA19002BC2D10028CFD043001B18F3
:10237000033BCB1800219970C8E7019B002BB6D115
:10238000C4E7500080180338091848788346484647
:102390004870587041462000FFF7CCFE59468046F1
:1023A0002000FFF741FF414602002000FFF7C2FE78
:1023B0008046CFE7F0B557464546DE464E46E0B587
:1023C00083B00191457B04006F0000687F19033FD3
:1023D000C15DC219002952D04B005B18033BC318E2
:1023E0005E78B446002E1CD1019E002E44D0E67BC0
:1023F000002E04D073009B19C318033B5D70A37BB0
:10240000002B00D1A573E573002931D100232800EA
:102410005370617303B0F0BCBB46B246A946A046F8
:10242000F0BD72006244033A821850788046002062
:1024300050708146587032002000FFF77BFE434603
:102440008246002B07D05B0021684344033BCB1836
:102450005A78002A17D1424651462000FFF76AFEFB
:10246000019B01002068C219002BC0D10029CDD0EA
:102470004B005B18033BC31800209870C6E7019B14
:10248000002BB4D1C2E750008018033809184878EF
:10249000834648464870587041462000FFF74AFE80
:1024A000594680462000FFF7BFFE4146020020004B
:1024B000FFF740FE8046CEE770B5050000292CD01E
:1024C000437B8B422ED04C0000686418033C0419F7
:1024D000A278002A21D053009B18033BC25CC61887
:1024E0008A4202D11BE0002A08D053009B18033B0C
:1024F000C3185A788A42F6D162785A7000230122B2
:102500002800A3706370FFF7D5FE697B02002800E6
:10251000FFF710FE6873012000E0002070BD6378B3
:102520003370EBE701221900FFF7C4FEF2E7C04663
:10253000F0B545464E46DE465746E0B583B0160038
:102540000C9A050088469A4200D973E01A0E934609
:102550001B0218000193594600230C9A01F060FFFA
:10256000354B6C009C466419A40064446368070002
:10257000834200D260602B1FDBB29946C0234A46DB
:102580009B012343012A33D9802212011A602B4B6D
:10259000AD0059599A46002907D0586901F002FF49
:1025A000013043001B18033BFDD2226873015340E6
:1025B000E0221A4080235B0123431A604A46012A25
:1025C0002BD9802380229B01234312011A60594694
:1025D00000233A000198676001F022FF53465851EA
:1025E000012003B0F0BCBB46B246A946A046F0BDF0
:1025F0004246012AC8D102321A60023AA3681A423E
:10260000FCD0226873015340E0221A4080235B0112
:1026100023431A60094AAD00924642462168514060
:1026200003220A401A60012243469A40A3681A42D4
:10263000FCD0C6E70020D4E700800040802A0020BC
:1026400010B50C2082B000F0B5F9FEF77DFB002834
:1026500010D08B4B8B488B498B4A1860596098601F
:10266000D960186159619861D961186259625A62DA
:1026700002B010BD854CA06700F0A4F90122844B84
:102680001A60636C012BFCD10322824B1A607F4AD3
:10269000936B012BFCD1013301217F4A7F480093CA
:1026A000043300F037F905237D4A009301217D486A
:1026B00000F030F97C4B5A68FF2A02D88022520081
:1026C0005A608022734B6E4C12011A6021690029F6
:1026D00007D0606901F066FE013043001B18033B20
:1026E000FDD2E022704B714819680A400260022254
:1026F0001968514001320A40042102609A6811426F
:10270000FCD080216A4A09011160802252005A607F
:10271000684B2361684B5968FF2900D85A6003222F
:1027200001215B4B1A60644A93681942FCD0E02394
:102730001068034061480360126803234A40022185
:1027400013405D4A036093681942FCD080215C4BC2
:102750000901196080215B4B4900516063615A4B4C
:102760005A68FF2A00D859608022584B12011A601B
:10277000E169002907D0606901F014FE01304300CF
:102780001B18033BFDD2E0234F4A11680B40504910
:102790000B6080214F4B090119608021394B4900A2
:1027A0005160E3614C4B5A68FF2A00D8596080227F
:1027B0004A4B12011A60216A002907D0606901F0B2
:1027C000F1FD013043001B18033BFDD2E023424AD8
:1027D00011680B4042490B608021424B090119608E
:1027E00080235B0053608022264BD20223623E4B43
:1027F0005968914200D25A6080223C4B12011A6003
:10280000616A002907D0606901F0CCFD0130430006
:102810001B18033BFDD2E023334A11680B403449B7
:102820000B608021334B090119608023DB02536068
:10283000154B6362304B5A68FF2A02D8802252003F
:102840005A6080222D4B12011A60A169002907D01D
:10285000606901F0A7FD013043001B18033BFDD266
:10286000E023254A11680B4025490B608021254B48
:102870000901196080235B005360124BA361F7E6E6
:10288000802A0020006CDC021BB7000000800040A2
:102890003CB0004030B00040002F6859008002403A
:1028A000008C864700C002403080004030900040DD
:1028B00030A00040001BB7003C8000403C9000402E
:1028C0003CA00040405973075480004054B0004081
:1028D0005490004054A000406080004060B0004030
:1028E0006090004060A000406C8000406CB00040F0
:1028F0006C9000406CA000404880004048B0004010
:102900004890004048A00040014B8000C0587047EC
:10291000802A0020F8B5040021481D0017000E0091
:1029200001F040FD0100380001F03CFD069B290448
:102930001B0319432368002B20DB1A4B1A4DE218A6
:1029400053425A4180235B019C461203174B624459
:102950001A60174B1A601700AB689F43FBD1C02267
:10296000231D92011A4321232660A060136023686F
:10297000002BFCDA0823E1601360F8BD3F232268D6
:102980001340B342D9D1A3681B051B0D8342D4D198
:10299000EE22E368D20213408B42CED1EDE7C0466F
:1029A000001BB7000040FDBF00C0004000E0004039
:1029B00000F000408023024A9B000343D36270472B
:1029C00000800540AA23064A1B0113602F230549F6
:1029D000D360054B19605368002BFCDA7047C04682
:1029E0000040024000B0FA00006002402B4B2C4A2D
:1029F00070B51A602B4A2C4B2C491A6014008B6856
:102A00009C43FBD12A4D2B4EB54208D2013E761B8A
:102A1000B60808CD984723000134B342F9D1FFF737
:102A20000FFE254A204B1A60204A9368DB43DB01E6
:102A3000DD09002BF9D14022204B214E214C9A6711
:102A40005A671A67DA66B44208D22368200008344D
:102A5000002B1FD0FEF7D6FCB442F6D31A4C1B4E07
:102A6000C022B168200002F0F7F8B460FEF7FAF96E
:102A7000FEF7A0FCFEF77EFE154C164EB44208D2BF
:102A8000013E361BB60808CC98472B0001359E4204
:102A9000F9D170BDFEF7A8FCD5E7C04600E00040C4
:102AA000BFCDFBFEFE7F3C0000F0004000C00040B8
:102AB000682A0020782A0020FFFFFF0100F0014073
:102AC000682A0020582A00200000002000ED00E0C5
:102AD000782A00207C2A002000BEFDE7094A030076
:102AE0001068002805D00849C3188B4207D8136026
:102AF000704706480449C31810608B42F7D901207B
:102B00004042F5E7383F00200000042068520020D2
:102B100010B5FFF7E1FFC0460FB400B5084883B019
:102B200002F068F9049B002B07D005A91800019159
:102B300001F0B8FB034802F05DF90120FFF7CCFF7C
:102B40002CA50010BCAA001010B50148FFF7E4FF47
:102B50003CA500109A4200D2885470477047C04686
:102B6000F8B557464546DE464E46E0B598460A9BC0
:102B700006009A460D9B0F00934615009B0710D147
:102B80000B9B0C9A93420CD213005C460B9A9D1A35
:102B90005D4422004346013439002020B047A5425D
:102BA000F7D10B9C6319002C09D01D0053462A1B3A
:102BB000013C185D39004346B047002CF6D10D9B0F
:102BC0009B070ED55B46EC1A0C9BA34209D999468C
:102BD0002A004346390020200134B0470135A14581
:102BE000F6D82800F0BCBB46B246A946A046F8BDC0
:102BF000F0B54F464646D646C0B584B098460EABB3
:102C00001B7894469946129B0D9C109F119E9A0723
:102C100024D4002E6AD1BC4220D201221A4092460E
:102C2000202C00D1D2E00C9A551E302201E0202C3D
:102C300030D001342A55A742F9D85246002A0DD087
:102C4000B4420BD20C9A551E3022202C02D126E021
:102C5000202C63D001342A55B442F9D1DA0634D598
:102C60005A0564D4002C5ED10F9A102A00D197E047
:102C7000022A00D1A8E030220C9C227001244A468E
:102C8000002A5ED15A0700D483E02B220C9D2A55DE
:102C900001341CE05246002A02D0202E3ED92024C6
:102CA000DA0614D55A0512D4202F00D1A1E0202E27
:102CB0003DD120261F2234000F9D102D00D18BE026
:102CC000022D52D030250C9FBD54202CD7D1039318
:102CD0000C9B62460093029643460194FFF740FF27
:102CE00004B0E0BCBA46B146A846F0BD01221500CA
:102CF0001D40AA461A4229D04A46002A39D10C3230
:102D00001A4236D1BC429BD2202C00D08BE7102235
:102D10001A40202EC3D8002AA2D1D8E72024DA06F0
:102D2000D5D55A0503D4A74225D0B44223D00F9A53
:102D3000102A25D0022A14D0202CC8D02200013419
:102D4000C0E72D220C9D2A550134C0E7BC4200D3B8
:102D500084E7202C00D066E710221A40002AE0D138
:102D6000B5E7202CB3D02200013462250C9FBD545E
:102D7000E2E7013EC6E7621E012C00D174E79BE743
:102D80009A0616D4202CA2D078220C9D2A55013404
:102D9000D2E71A079BD520220C9D2A55013496E7CD
:102DA0009A060FD478220C9C227030226270022482
:102DB00065E7202C00D18AE758250C9A1219157066
:102DC0000134B9E75822EEE76222ECE710225546BB
:102DD0001A40002D9FD1C1E7023C9D0604D47825FE
:102DE0000C9F3D551400A9E758250C9F3D55140034
:102DF000A4E71F2260E7C04610B5002800D110BD2F
:102E000001F0ACFFFBE7C0460B0010B5002802D074
:102E100049681B68984710BDF0B557464E46454671
:102E2000DE46E0B599B08246894690460893229ADC
:102E3000239B1000190001F066FD002800D0CDE0B2
:102E4000229823990122D94B524201F057FD0028C4
:102E500000D0C3E0229823990122D54B524201F0C1
:102E60003FFD002800D0B9E02298239900220023DA
:102E700001F036FD002800D0F1E1229E239F80233F
:102E8000269ADB001A400D92269A1A4201D1062397
:102E900024938023269A1B011A403B0093460996EF
:102EA000334300D0B3E0002A00D0C2E10023002465
:102EB0000A930B94002304250993259B0024AB421D
:102EC00000D95C1B0223269A1A400C92269A1342C0
:102ED00003D06B426B415B421C40099B002B07D027
:102EE0000A9A0B9B3000390001F0A1FC06000F008C
:102EF000229823990022002301F0F2FC002803D03D
:102F0000802109067B181F00269AAA4B009601977C
:102F10001340089E0493249B03940293424633007B
:102F20004946504600F0AAF90400002D67D0202041
:102F3000269A4946024013005A4253415B42621CA2
:102F400018400A92330022004530D047099A6F1E7C
:102F5000D317D4185C40D30F9B46002501E0202DE9
:102F600013D008AA94461F23200063440A21013588
:102F70005E1901F017FA3031317020000A2101F09A
:102F800011FA26000400092EE9D805230693002330
:102F900004930A3303935B46089E029310AB0A9A8C
:102FA000009349463300504605970195FFF720FEF0
:102FB0000C9A0400002A22D04246851A259AAA4279
:102FC0001DD9B046574616002200434649462020E8
:102FD0000135B8470134AE42F6D810E0269B424690
:102FE0000493259B49460393249B50460293229BBE
:102FF000239C00930194089B00F040F904002000FA
:1030000019B0F0BCBB46B246A946A046F0BD6A4B1B
:1030100078009C46400D604401F088FC674A684B8C
:1030200001F01FFC674A684B01F0FCFB674A3B0359
:103030001B0B1A4304000D0009981100644B002279
:1030400001F0EBFB634A644B01F00BFC02000B0048
:103050002000290001F0E6FB01F080FC099001F05E
:1030600065FC5E4A5E4B04000D0001F0FAFB002295
:103070005C4B01F0D7FB01F071FC5B4A5B4B290014
:103080000C90200001F0EDFB04000C980D0001F005
:103090004DFC574A574B01F0E4FB02000B002000A7
:1030A000290001F0BAFB04000D0002000B000A9495
:1030B0000B9501F0D6FB04000D000A980B99020055
:1030C0000B0001F0AFFB00220E900F914A4B200045
:1030D000290001F0ACFB0022484B01F0A3FB0200E9
:1030E0000B002000290001F0A2FB0022444B01F05C
:1030F00099FB02000B002000290001F098FB0A9ABE
:103100000B9B0D0080210400C905002001F085FB08
:1031100002000B002000290001F084FB02000B00DC
:103120000E980F9901F083FB0022284B01F07AFBE7
:10313000344B0C9C9C4664442305002201F091FB17
:1031400004000D0002000B00300039000A940B95BA
:1031500001F0C6FB00285DD123002A00C62509998D
:1031600063318D42AD4159466D420435002900D18D
:10317000A3E6134363D030003900234A234B01F008
:10318000B5FB002807D0002230003900204B01F0A9
:10319000A7FB002853D1249B002B00D18DE60D9B6B
:1031A0005A1E9341249AD31A249386E6FFFFEF7F99
:1031B000FFFFEFFFFFF7FFFF01FCFFFFFB799F50D1
:1031C0001344D33FB3C8608B288AC63F0000F03F4A
:1031D0000000F83F61436F63A787D23F71A379096D
:1031E0004F930A400000E03F1655B5BBB16B02405B
:1031F000EF39FAFE422EE63F00002C40000024404A
:1032000000001840FF0300002D431CEBE2361A3F7C
:1032100080842E41099B0022013B09932000164B1C
:10322000290001F004FB0A00010003000A910B923F
:1032300094E7002300240A930B9400230993249A13
:10324000099B9A4214DDD31A013B24938023269ACA
:10325000DB001A4300230025269209932DE68022E5
:1032600012069446229B1E00239B63441F0006E621
:1032700000232493EAE7C04600002440F0B5454609
:10328000DE464E465746E0B595B08B469046994689
:103290001E9A1F9B0A9019001000209D01F033FB1D
:1032A000002800D0B0E11E981F990122C74B52425E
:1032B00001F016FB002800D037E11E981F9901226B
:1032C000C34B524201F01AFB002800D0A7E01E9821
:1032D0001F990022BF4B01F011FB002800D088E0AD
:1032E0001E981F990022BC4B01F0FAFA002800D06A
:1032F0007FE01E981F990022002301F0F1FA0028B8
:1033000000D0FAE000230B938023229C229ADB005A
:103310001C401A4200D102E1092D00D87EE106A925
:103320008C462C00172200233021093C62440133D3
:10333000D154EF1A202B00D132E1A342F7D1002261
:10334000A44B069207931E981F9901F007FB0500F6
:1033500001F0ECFA02000B001E981F9901F05DFAD3
:10336000069A079B01F07DFA0890099101F01AFB7B
:10337000060001F0D7FA02000B000898099901F045
:103380004CFA0022954B0890099101F0B7FA0028F9
:1033900000D1D2E00136300001F0C4FA069A079B52
:1033A00001F0A4FA002801D000260135AA46002F1A
:1033B00000D098E0280001F0B9FA02000B001E9836
:1033C0001F9901F02AFA854B002206000F0001F038
:1033D00087FA0CAB9A46002845D10022300039000C
:1033E0007E4B01F08BFA00283DD1EB073BD5013530
:1033F00039E0229B42460493219B594603930A9845
:103400001E9B1F9C0295009301944B46FFF704FD01
:1034100015B0F0BCBB46B246A946A046F0BD229B03
:103420005B0767D403226E4B229901920391219985
:103430000291009342464B4659460A98FFF790FB8B
:10344000E6E706AA94461723280063440A210134BC
:103450001E1900F07FFF3031280031700A2100F082
:1034600079FF051E76D0202CEBD10323229A13403E
:10347000012B1DD1219B002B1AD00B9B002B00D0C0
:10348000BBE0229A0C33134200D0B6E0219BA3424A
:1034900000D887E006AB9C4617223023624404E044
:1034A0002199013413558C4259D0202CF8D1202475
:1034B000229B01940393219B02935346B9E706AAEA
:1034C000944617230A216344300001341D1900F08B
:1034D00069FF3031297030000A21013F00F062FF9E
:1034E000092E46D90600202CE9D155460CAB2024E4
:1034F0009A46B8E704223B4B96E71E9A1F9B002092
:10350000002101F08AF901230B938023229C229A47
:10351000DB001E901F911C401A4200D0FCE60022E6
:10352000314B0627069207930DE7229B0393219BBD
:103530000293042301932D4B7BE7002208980999FD
:10354000264B01F0CDF9002800D02FE7002E4FD1F7
:1035500001362BE70323229A1340012B68D0202C3D
:10356000A6D00B9B002B1FD02D23524613550134A0
:103570009EE75546202CB9D030223B19002F4BD066
:10358000172006A9013409180A55202CAED09C42F8
:10359000F6D10CAA92462E2251465C1CCA5462E710
:1035A0002024CCE6202C83D0229B5B0708D4229BCE
:1035B0001B0700D47CE7202352461355013477E7DC
:1035C0002B2352461355013472E7C046FFFFEFFF2D
:1035D000FFFFEF7F65CDCD4165CDCDC10000E03F60
:1035E00050A5001048A5001080842E4158A5001059
:1035F000F30700D4DAE60136D8E6219B013B21939C
:10360000A34200D946E7AAE7229B0393219B02939A
:1036100003230193084B0CE72300BAE7074BEA00AA
:103620009B185C681B682F000693079400248AE6A9
:10363000219B002B93D020E754A5001000A7001079
:10364000F0B54546DE4657464E46E0B5A1B01D00F2
:103650002A9B90460B93D04AD04B83468A461A60E9
:10366000002900D1A4E1002328789946002800D140
:10367000A6E1CB4B5E460993CA4B4C46D346474620
:103680000D930AE0631C984622003B005946B04760
:1036900044462878002800D1CDE001352528F1D115
:1036A00008239A46043B9946023B9846013B002278
:1036B0009C460C942878691C0300203BDBB2102B3D
:1036C00003D8099C9B00E3589F460300303B0C9CA9
:1036D0000A92092B7FD9002398462A2800D1C1E0FD
:1036E00000239A462E2800D190E00300683BDBB20D
:1036F000122B1ED8AC4A9B00D3589F4663460D0040
:103700001A43D7E743460D001A43D3E74B460D0053
:103710001A43CFE710230D001A43CBE753460D00A1
:103720001A43C7E780235B000A9A68781A430A9213
:1037300001310D0067280AD82428A3D90300253BAE
:10374000DBB2422B9ED80D9A9B00D3589F460100B6
:103750006939C9B20F2995D801238B409C46934BF8
:10376000994663464A4613400C9362464B461A42BA
:1037700000D05EE20A2900D124E1072982D10B9B07
:1037800002CB9846002900D19BE121200A9A0243EE
:10379000914610AB9C461F220F23404662440B9576
:1037A0009C46A04615000C9B0A9002E0202B0CD0F2
:1037B000110064460C4020003730092C00D807382F
:1037C0000133E8540A090F29F0D80C930A9B4446A8
:1037D0000B9D984685E1002398460A9B45469C46EA
:1037E00000E00131AB005B195B001D180878303D2B
:1037F0000300303B092BF4D963460A930023A84603
:103800009A460D0001312E2800D06EE780200A9ADA
:10381000C00002430A9230225242944668780B005C
:1038200084446246092A00D82EE12A2800D13DE1CD
:103830000D00013159E7DA46A146B346B846C845FE
:1038400003D801235B424344994643464A465146C6
:103850000020D847200021B0F0BCBB46B246A946A4
:10386000A046F0BD0B9B04CB9046002A04DB687891
:103870000B930D00013133E70A9A283802430A926C
:1038800042465242687890460D000B93013127E77B
:10389000672800D1C7E1472800D114E2452800D1AC
:1038A00016E20A9A0721049242460B9B03920733C1
:1038B00052468B43190002920CC9300000920193CA
:1038C0000B9122003B005946FFF7A6FA0400E0E600
:1038D00080239B0028E76878682800D11BE28023BA
:1038E0000A9A01311A430A9223E768786C2800D1BA
:1038F00009E280230A9A5B001A430A92013118E711
:10390000462800D18AE10A9A0721049242460B9B7D
:103910000392073352468B43190002920CC93000C0
:10392000009201930B9122003B005946FFF7A6FC41
:103930000400AEE6631C984622003B005946252051
:10394000B0474446A5E60B9B04330C93631C994691
:103950000A9B9A0700D4E7E10B9B2200187859468E
:103960003B00B04743464444012B00D8B8E22B004B
:10397000B84625005F464C4699462200434601342E
:1039800039002020B047AC42F7D12C00BB464D4651
:1039900047460C9B0B937CE64136001048430020C1
:1039A00060A50010F0A50010A4A500104190000033
:1039B000DC4B28789B4600239946002800D058E627
:1039C00000243CE70B9B02CB12930B789C4618001B
:1039D0005346002B00D09CE0002812D002235B420B
:1039E0000133994689444A460B008946110001E09B
:1039F0008B4203D05A780133002AF9D149465B1A29
:103A00000C938023DB0099460A9A13400B934B4694
:103A10001A4204D00C9B534501D953460C93022300
:103A200099460A9A13400A934B46134200D1B5E1D6
:103A30006346002B00D197E10B9B002B00D14CE19A
:103A4000D1460B1B9A462B00A1444D462200B94695
:103A50005F469B4609E04B463900541CB04753462D
:103A6000185D002800D158E122009542F3D15B4651
:103A7000BB464F46A9461D004C460A9B002B00D072
:103A800072E1129B0B9304E655460A9AA900491964
:103A9000490001330D181878303D010030390929EB
:103AA000F4D9AA460A921D00591C1EE60B9BA87861
:103AB00004CB0235D143C9170A4092460B93691CC7
:103AC00013E60A9B10211A008A43100011310843A3
:103AD000814680201A00C00002401100034200D13C
:103AE00057E64B4608220693534605920832039246
:103AF000002204930C9B0292019318AB22000093C6
:103B000059463B003000FFF773F8434604000B931F
:103B1000BFE5002800D174E75346013B60E7622807
:103B200000D1DFE1582800D1ECE10A9980230A0096
:103B3000DB001A4010000A00194200D1BDE1112338
:103B40009A430C920C9A802311009B0019408C46DA
:103B50001A4200D046E1802311005B0019408946DB
:103B60000B9904310A911A4200D08FE213005B06D0
:103B700000D59EE113001B0600D426E30B9B002218
:103B80009B5ED9175A184A4092B2D90F0B91002B5D
:103B900000D177E2100010AA944642461F231292E9
:103BA00052466344AA4614944D460400B946B046B2
:103BB0001F00139201E0202D0FD020000A2100F0F9
:103BC000F1FB01357E193031317020000A2100F0FF
:103BD000E9FB26000400092EEDD8129B46469846C4
:103BE000139B4F46A94655469A46149C0C9B069338
:103BF00043460593534604930A2303930B9B029376
:103C00004B46019318AB2200009359463B0030000D
:103C1000FEF7EEFF0A9B04000B933AE520230A9A75
:103C20001A430A926FE680230A9A1B011A430A92EA
:103C300037E6782800D0AFE10A9880230200DB0045
:103C40001A4011000200184200D1D0E20D239A431D
:103C5000100003330A93802302009B001A4094460D
:103C6000184200D0ACE1802302005B001A4091466C
:103C70000B9A04320C92184200D04AE2430600D458
:103C800093E20B9B1B780893002B00D04BE1103381
:103C90009843002900D146E1002399464346059305
:103CA000534604930A9B06900393002302934B46CA
:103CB000019318AB2200009359463B003000FEF7F9
:103CC00097FF040065E680230A9A1B011A430A92B3
:103CD00020230A9A1A430A92E3E50B1B9A460C9B8F
:103CE00099462B005D469B4622003B002900B047C9
:103CF00053460134185D0028F6D14B460C935B46C1
:103D0000AB461D00B9E6C0239B000A9AA8781A4367
:103D10000A92E91C0DE5C023F7E75D46BB464F4616
:103D2000ABE6C0465D2B00104346012B00D8D1E026
:103D3000631E4344B9461D005F46A2468B462200DF
:103D40004B46013439002020B047AC42F7D15D46E4
:103D5000BB464F46A14654460B9B4A4618785946E7
:103D60003B004444B04714E60C9BA146984500D85C
:103D700087E64444E41A2B00B84625005F464C46CB
:103D8000994622004346013439002020B047AC4216
:103D9000F7D12C00BB464D46474672E60C9880454D
:103DA00000D81CE243461A19131A99462B004D46B7
:103DB000B9465F469B460C9122004B4601343900C0
:103DC0002020B047AC42F7D143460C9901330C9305
:103DD0000B785D469C46BB464F466046002800D0A7
:103DE0002AE64EE607220B9B0733934301329446A3
:103DF0009C4462460B920CCBD90F0A9111001943D7
:103E00005FD0D9171191109151400E9111995940DD
:103E10000F910E980F99109A119B801A99410E904C
:103E20000F9110AA00239446424699461292524698
:103E30001F336344B046AA464E461494B9460E9CBE
:103E40000F9D1F00139201E0202E10D020002900AA
:103E50000A22002300F0E4FA013630322B00BA5572
:103E60000D0022000400002BEED1092AECD8129B91
:103E70004F46B14646469846139B0E940F955546BD
:103E80009A46149C0C9B0693434605935346049311
:103E90000A2303930A9B02934B46019318AB22001B
:103EA000009359463B003000FEF7A2FE0400FFF7E6
:103EB000F0FB0B9B1B781A0067E610239A430C92C9
:103EC00040E6002399460028DCD1002200230E9210
:103ED0000F93A6E70B9B2200187859463B00B0478A
:103EE0004C4656E50A9880230200DB001A40110078
:103EF000184200D15FE102000D239A430B3B1000F2
:103F00000A93A8E60A9880230200DB001A401100F9
:103F10000200184200D166E10D2320209A430333AA
:103F200010430A9397E66123820600D54123DBB252
:103F30000A3B0B93434610A91F228C46129353460B
:103F40006244AA46149415974C468046B146170021
:103F50000A9E089D139308E03033DBB201343B55D1
:103F6000B5420ED3202C0CD005003100280000F003
:103F700019FACBB20929EFD90B9A94466344DBB204
:103F8000ECE7129B40469846139B4E465546A14689
:103F90009A46149C159F81E66F2800D037E10A9954
:103FA0000C230A009A43802310000A00DB001A4009
:103FB00011000A9A1A4200D021E108230A934AE626
:103FC0000B9AFA3BFF3B07329A4301339C469444D9
:103FD00063460B93136852680893134312921A1E98
:103FE00005D10023103299469043002941D1612226
:103FF000810600D54122D2B20A3A0C9242460023F1
:1040000010A9139252468C46994614921F330A9A6D
:104010006344AA46159417964C469046B946089EA6
:104020001F00129D16900AE03032D2B200230134F4
:104030003A55AB4211D0202C11D006000D0042465B
:1040400000233000290000F0EBF9D2B2092AEBD9A5
:104050000C9B9C466244D2B2E8E7B045EBD9139B77
:1040600055469846149B4F469A46A1461698179E69
:10407000159C43460593534604930A9B069003936D
:10408000002308E7002800D0B0E584E50B9B1B68FF
:10409000DA0F1100002B00D194E0DA179818504085
:1040A00010AA914642461F23129252464B44A04604
:1040B000AA4614970400B14665461F000B9113925F
:1040C00001E0202D0FD020000A2100F06BF901350E
:1040D0007E193031317020000A2100F063F926008A
:1040E0000400092EEDD8129B444698460B9BAC4623
:1040F0001900139B55464E469A46149F0C9B0291FD
:10410000069343460593534604930A230393634659
:1041100077E50B9B1B680893002B03D11033984362
:10412000002937D16123820600D54123DBB20A3B47
:104130000B93434610A989461F22129353464A44C3
:10414000AA46B14614941597644680461700089D08
:104150000A9E139308E03033DBB201343B55B5427D
:104160000ED3202C0CD005003100280000F01AF9E5
:10417000CBB20929EFD90B9A94466344DBB2ECE742
:10418000129B40469846139B55464E469A46A44677
:10419000159F149C43460593534604930A9B06902F
:1041A000039300230293634682E5030613D50B9B1A
:1041B0001B88089368E502000C239A430A3B100011
:1041C0000A9348E5002899D16AE70B9B1B68D91729
:1041D0005A184A40D9E40B9B1B68089354E5030026
:1041E00001330C93F9E520230A9A1A430A920C230F
:1041F0000A9A00219A43043310000A932BE50A9B84
:104200000C9308230A930D230C98984323E510235D
:104210000A9A9A430C9269280AD10A9980230A00C3
:10422000DB001A4010000A00194200D18AE486E43B
:104230000A991C230A009A43802310000A00DB001D
:104240001A4011000A9A1A4202D10A230A9302E57F
:104250000A230A93D7E7C0460EB4012230B584B0D2
:1042600007AC08CC064D010000942800524203948C
:10427000FFF7E6F904B030BC08BC03B01847C046ED
:10428000552B001000B585B00391012102900093D9
:10429000034813004A4202A9FFF7D2F905B000BD56
:1042A000092E001010B5094A0300146884B0002CD0
:1042B00008D0012200910648524203A9A0470120DC
:1042C00004B010BD00F096FD0020F9E7484300203F
:1042D000F92D001001480421014B1847B02400209B
:1042E00011430010014B9B6818470000B0240020C8
:1042F000142310B50100188804331B88984710BD9B
:10430000162310B50100188802331B88984710BD8A
:10431000F8B54746CE4680B50F1E19D014239946EE
:10432000043304000025012698464B46188843466E
:1043300021681B88984701C4431E984101354042BB
:104340000640AF42F1D13000C0BCB946B046F8BD1E
:104350000126F8E7124A936F9B0815D29066D16642
:10436000002905D0FFE7FFE7FFE7516F106F7047A7
:1043700004B580210906C2175140002800D0C84367
:1043800005F0DAFE002104BDF0B5146E556E576FCE
:10439000166FFFF7E3FF1466556657671667F0BDA3
:1043A000000000D0114A936F9B0813D2106651662B
:1043B000002905D0FFE7FFE7FFE7516F106F704757
:1043C00004B5002801D00020C04305F0B5FE00214F
:1043D00004BDC046F0B5146E556E576F166FFFF7EB
:1043E000E5FF1466556657671667F0BD000000D0FC
:1043F00094464A4A926F9208624601D228E0C0462B
:10440000F0B5464E346E756E776F366F00F020F85B
:104410009446424A14665566576716676246F0BD71
:1044200094463E4A926F9208624601D254E0C046DA
:10443000F0B53A4E346E756E776F366F00F04CF80B
:104440009446364A14665566576716676246F0BD4D
:10445000002B24DB11D000293EDA00B5C9434042CD
:1044600000D1013100F038F8C943404200D1013198
:10447000DB43524200D1013300BD002AEBD10028BA
:1044800001D1002905D00020C90FC90701D1C043BF
:10449000410800B505F048FE0022002300BD00B52C
:1044A00000290ADBDB43524200D1013300F014F84B
:1044B000C943404200D1013100BDC943404200D14F
:1044C0000131DB43524200D1013300F005F8DB43F8
:1044D000524200D1013300BD002923D1002B18D155
:1044E000002A0CD0BC460D4F38667A6600210023A6
:1044F000FFE7FFE7FFE77A6F386F674670470028EE
:1045000001D00748010000B505F00EFE002200238F
:1045100000BD02000B00002000217047000000D009
:10452000FFFFFFFF002B00D0BFE0130C28D1002AB3
:10453000E7D080B4114F39667A66FFE7FFE730B401
:10454000040C7B6F396F1B0423433B667A66FFE7DD
:10455000FFE7FFE7C04684B27B6F3D6F1B04234338
:104560003B667A66FFE7FFE7C04600232C042D0C6C
:104570007A6F386F00196941B0BC7047000000D0F5
:10458000F0B594460025140E01D112020835140F1F
:1045900001D112010435940F01D192000235D40FDC
:1045A00001D152000135D40B0134254F7C66254CD6
:1045B0003C660E0C93B2FFE7FFE7FFE73C6F6643F4
:1045C000360C7703BE467343DF0B5B04C01AB94158
:1045D000130C7343DB18C91ACE086643360CB64475
:1045E00093B273431F0F1B01C01AB941130C7343DD
:1045F0001F0B1B05C01AB941860D8F023E4366434F
:10460000360C092D24DB520A7243801A7703460ABE
:104610006643360C16235B1BDE40DF40BF19644641
:104620006643821B7046043506330100D940A8401A
:10463000C01900D30131A24206D20023F0BD000010
:10464000000000D0FFFFFFFF121B0130F3D3F1E7A2
:1046500009277F1BFE406446A2B27243801A00D233
:104660000139220C7243130C1204821A99410B0077
:104670007046043513370100F940A840801900D373
:104680000131002B02D1A2420AD2F0BD013000D389
:104690000131121BFAD2013BF8D1A24200D2F0BD87
:1046A000013000D30131121BF7E7F0B51C0C00D02C
:1046B00080E00CB400251C0A04D11B02160E334303
:1046C000120208351C0B04D11B01160F33431201D3
:1046D00004359C0B04D19B00960F334392000235A6
:1046E000DC0B02D192185B4101351C009718644124
:1046F0000134464F7C66464C3C660E0CFFE7FFE7F4
:10470000FFE7C0463C6F6643360C7703BE4697B260
:104710007743C01B00D20139C01B00D201399FB2C0
:104720007743C91BC91B170C77437E04FF0B801B03
:10473000B941CE086643360C0C2D33DBB644120B60
:104740001F053A431B0B97B27743C01B00D20139B8
:104750009FB27743C91B170C77433E043F0C801B65
:10476000B941860D8F023E43664329277F1BFE40D9
:104770000C3D7746AF40BF1930BCA2B2ABB272431A
:104780007343801A9941220C7243130C1204801A4D
:10479000994102000B000137001BA941F9D2781E94
:1047A0000021F0BD0C277F1BFE4077467F0BAF40FA
:1047B000FF19E0E700245D1C07D0144F7D663966C1
:1047C000FFE7FFE7FFE7FFE73C6F95B29EB2654367
:1047D0006643401BB141150C1E0C6543664336040D
:1047E0002F0C3E432D04401BB141994204D20200DC
:1047F0000B0020000021F0BD01D19042F7D3801AB8
:10480000994101349942F2D3F6E70000000000D04C
:10481000FFFFFFFF48404140484018B4134B5B681E
:10482000019308BD18B4114B1B68019308BD944651
:104830000F4A926F920805D2624618B40B4BDB68A0
:10484000019308BD0A4AF0B5146E556E576F166F86
:104850006246FFF7F2FF064A146655665767166709
:10486000F0BD18B4014B9B68019308BDA82B002034
:10487000000000D0FFB550404240504059404B40EE
:10488000594000E0FFB5154F4C00640D03D0BC4209
:1048900004D10C0314D80020090D09055C00640D37
:1048A00003D0BC4204D11C030AD800221B0D1B05F7
:1048B00001264B4009D44B4003D58B4200D18242A4
:1048C000FFBD9942FCD19042FFBD0B43DB1803436F
:1048D0001343F5D0C9434918FFBD0000FF0700008E
:1048E00000B5FFF7CFFF804100BDC04600B5FFF720
:1048F000C1FF01D9002000BD012000BD00B5FFF7B8
:10490000B9FF804100BD012040054A00121804D8BB
:104910005A00121801D8002070470120704700206B
:10492000704700000021002805D17047C11748409A
:10493000401AFAD0C90713B5064B1B6898470CBC40
:10494000441CA2401005120B0349091B0905194319
:10495000114310BD445100201F04000010B54C004D
:10496000620D8023D218DB00D21A5B057E2A10DD8F
:104970009E3A13DACC170903490819435242D14031
:10498000640001341532202A05DAD0400843604320
:1049900010BD002010BD0846604310BDC80FC018F0
:1049A000013810BD18B4024B5B6A019308BD0000CA
:1049B000A82B002010B50148FEF7AEF850A7001054
:1049C000132370B51D78012D15D010DD1B48FFF79E
:1049D00097FC1B4C01008022200000F03DF9022DC5
:1049E00006D01848FFF784FC174B186070BD144CB4
:1049F000164BA364F5E7164B114C23606360A3606C
:104A0000E36023616361A361E36123626362A36284
:104A1000E36223636363A363E36323646364A36464
:104A2000E36423656365A365E36523666366A36644
:104A3000E36623676367A367E367D9E7534400002E
:104A4000A82B00204C33000044510020554A001090
:104A5000B549001007B5604601880A0A0230DF2A0E
:104A6000FAD1C9B2820804D30288408800041043F6
:104A700000E00068014A5050039007BDA82B0020B9
:104A800051434343C9188C46110C83B24B4310B4B5
:104A9000040C614392B280B2504362431C041B0C6D
:104AA000001910BC59411304120CC0185141614443
:104AB000704700004840414048400E4B5B68184733
:104AC0000C4B1B6818470C4A936F9B0802D2094B8A
:104AD000DB681847F0B5146E556E576F166FFFF709
:104AE000F6FF054A1466556657671667F0BD014B19
:104AF0009B68184748510020000000D0491A002840
:104B000008D1084670470000C10FC90700D54042D0
:104B1000002817D0F44603B40B4B1B68984706BC1B
:104B200081409E384042803107D20B0607D04900B1
:104B3000490AC0051043084360470130F8E7490AB5
:104B40008902F5E77047000044510020014B5B6A81
:104B5000184700004851002010B50148FDF7DCFF60
:104B600058AB0010132310B510481C78FFF7C8FB92
:104B70000100012C0AD003DD80220D4800F06CF802
:104B80000C48FFF7B5FB0C4B186010BD084C5422C5
:104B9000200000F061F82200084980322368002BD1
:104BA00000D1216004349442F8D1E9E75346000073
:104BB000485100204C33000044510020594B001054
:104BC00070B504000A4E300005F00EFB200004F022
:104BD00001FE0500300005F09FFA002D05D0054BC1
:104BE0002C199C4201D8280070BD0348FDF794FFA2
:104BF000582A00200000042068A7001070B50500A6
:104C00000C000B4E300005F0EFFA2800210004F0F4
:104C100081FD0500300005F07FFA002D05D0054B21
:104C20002C199C4201D8280070BD0348FDF774FF81
:104C3000582A00200000042068A700100148042121
:104C4000014B1847C024002011430010014B1B6882
:104C500018470000C0240020014B5B681847000083
:104C6000C0240020F0B5C64600B5437D07000D0006
:104C70001600002B38D0002A2EDD00216A1E904637
:104C80006A5C037D4C1C00200A2A0CD0A64216D078
:104C900043461B5D21000D3B5A4253416A5CDBB227
:104CA0004C1C0A2AF2D1002BF0D1814217DC0221E0
:104CB00010483B689847A64207D02000E8E78642A4
:104CC00003DD311A3B6828189847AD19013D2B7850
:104CD0000D3B5A4253413B7580BCB846F0BD091AA2
:104CE0003B6828189847E2E70368110028009847B6
:104CF000F2E7C046E8A70010F0B5C6460B6806000C
:104D00000C0000B5802B06D05A1C2260E4182671D6
:104D100080BCB846F0BD0F4B1D68002D16D00B1D92
:104D200098460D4F02E02D69002D0FD02B68002B07
:104D3000F9D03B68002B01D0AB42F4D128004146AA
:104D40002268FFF78FFF2D69002DEFD1012200238C
:104D5000DBE7C046283F0020343F0020F0B5CE46B8
:104D6000474680B583B06B460600DD1D2870FDF711
:104D700089F800231A4A12184B41802109068B42F8
:104D800002D30122174B524217490800884605F00A
:104D9000F3F9164B81461C68002C14D0144F02E026
:104DA0002469002C0FD02368002BF9D03B68002B1E
:104DB00001D0A342F4D1200001222900FFF752FFC5
:104DC0002469002CEFD14B46002B05D1300003B0F5
:104DD000C0BCB946B046F0BD404605F09DF9F5E7C8
:104DE00040420F00FFFFFF7F602A0020283F002085
:104DF000343F0020F0B5DE4657464E464546E0B506
:104E000085B0070005F00CF80600FDF73BF800231D
:104E10002B4A12184B41802109068B4202D30122F2
:104E2000284B5242284908008B4605F0A5F9274B2C
:104E300001901C689A46002C3BD0254B984602AB4B
:104E4000DD1D0A23994602E02469002C17D023684F
:104E5000002BF9D043461B68002B01D0A342F3D1AD
:104E6000200032003900FFF7FDFE4B4620000122F2
:104E700029002B70FFF7F6FE2469002CE7D1019B77
:104E8000002B18D153461C68002C06D06368002BF9
:104E90000BD098472469002CF8D1300005B0F0BC45
:104EA000BB46B246A946A046F0BD2469002CEDD110
:104EB000F3E70028F1D0584605F02EF9E2E7C046A6
:104EC00040420F00FFFFFF7F602A0020283F0020A4
:104ED000343F0020F0B5CE46474680B5A3B004006D
:104EE0000D00FCF7CFFF0023294A12184B41802107
:104EF00009068B4202D30122264B5242264F38002C
:104F000005F03AF900230600019322002B00234804
:104F100001A9FFF7B7F9019B8046002B14D1204B64
:104F20001C68002C06D06368002B0BD098472469BE
:104F3000002CF8D1002E25D1404623B0C0BCB94684
:104F4000B046F0BD2469ECE7154B1D689946002D6D
:104F50001CD0144C02E02D69002D0FD02B68002BC3
:104F6000F9D02368002B01D0AB42F4D12800019A7C
:104F700002A9FFF777FE2D69002DEFD14B46019571
:104F80001C68CEE7380005F0C7F8D5E70195D1E7F2
:104F900040420F00FFFFFF7F602A0020F94C001005
:104FA000283F0020343F00200FB400B583B004A98F
:104FB00001C90191FFF78EFF03B008BC04B0184788
:104FC000F8B5DE4657464E4645460123E0B5160085
:104FD0000D009A460400002128223000FFF736FE1B
:104FE0006B7850465A1E93413A4A1B0594466344D7
:104FF0002360EB78984000F0B9FCEF781123BC46B1
:10500000354F2268B9466746FF02B8469B46334B88
:105010004F46D318591E8B414046A978DB005B18D8
:1050200007405846DB033B43A0270343081D80008D
:105030001218FF056046B84680014044036163468C
:1050400042606878E360431E9841224B00059C460D
:105050006044616020602B795A1E93411B056344B4
:1050600023616B796361AA792B78E261B3700133B4
:10507000DBB2F370AB89238600F0A0FA6169206986
:1050800000F09CFAE169206900F098FA32002900EA
:10509000200005F069F8B0780121C0B2FBF734FEBA
:1050A000F0780121C0B2FBF72FFEB0780321C0B227
:1050B000FBF73AFEF0780321C0B2FBF735FE51460C
:1050C000202300223170F254F0BCBB46B246A94600
:1050D000A046F8BD00002050FF7FE0FF0000E0AFD9
:1050E000F0B50600564D574C2A0085B0310020001F
:1050F000FFF766FF02230520EB73FDF705FCFFF7C2
:10510000FDFC5149051CFFF7DEFC071CFFF71EFDE7
:1051100080B20023608600280CD0FFF7EFFC011C52
:10512000381CFFF7CAFC8721C905FFF7E0FCFFF731
:105130000DFDC3B234224549A354281CFFF7C3FC1C
:10514000071CFFF703FD80B20023608700280CD006
:10515000FFF7D4FC011C381CFFF7AFFC8721C90501
:10516000FFF7C5FCFFF7F2FCC3B23C223849A35459
:10517000281CFFF7A8FC071CFFF7E8FC80B20023FF
:10518000E08600280CD0FFF7B9FC011C381CFFF7A3
:1051900094FC8721C905FFF7AAFCFFF7D7FCC3B22F
:1051A00038222C49A354281CFFF78DFC051CFFF75F
:1051B000CDFC80B20023E08700280CD0FFF79EFCD6
:1051C000011C281CFFF779FC8721C905FFF78FFC1C
:1051D000FFF7BCFCC3B24022A354B4681E4E346037
:1051E000002C14D01D4D2B78002B0DD100230193E2
:1051F00001231B4A200002921A4A5B4200921A4A7B
:10520000FCF7EAFB01232B70184805B0F0BD012123
:105210000220FCF7E9FA114D04002B783060002BD6
:10522000F2D10028E2D1FCF7DBFA0E4B0C4A0093D6
:105230000123029201940C4A5B42FCF7CDFBE1E7AB
:10524000DC50002068430020001B374C001BB74A8D
:10525000001BB74C001B374B302E0020655200203E
:10526000A82C00209D13002018FCFFFF2C440020D8
:1052700070B50122032684000D4B2418E400E418C5
:10528000A2733200A378A3780A4D9A40696813008C
:105290002868002200F022FA3100A278A378914019
:1052A0009E400A0003CD330000F06CFA70BDC0468A
:1052B000DC50002068430020032310B58400094916
:1052C0002418E4006418A178074AA1788B4003CA27
:1052D000002200F057FA64200021FCF71BFE002397
:1052E000A37310BDDC50002068430020B8220D4B92
:1052F0001201F0B50027002652259C1802E05C330D
:105300009C420DD01A788242F9D15A788A42F6D15D
:10531000DA88002AF3D0DF805E555C339C42F1D1FD
:10532000F0BDC0465C450020F0B5D6469A46B8238D
:105330004F464646124C1B01C0B5814688461700B1
:10534000E61802E05C34A64217D0E588002DF9D1BA
:105350002000390004F030FF4B4623705346A37001
:1053600043466370BB780120DB43DBB2DB09E370AB
:10537000E0BCBA46B146A846F0BD0020F8E7C046FA
:105380005C450020F8B50E001100B822134B120145
:105390007F279D1802E05C33AB421AD01C78A042F4
:1053A000F9D15C78A642F6D1DC88002CF3D01A79CA
:1053B000002A02D01A791742EDD10020502218712C
:1053C0002D3098542C38D870483A180004F0BCFEA0
:1053D000F8BD0348FFF70EFD0020F9E75C4500200B
:1053E00008A90010F8B5050006A80088204C8446DE
:1053F000B8200001271850061BD002E05C34BC42E4
:105400001ED026782000B542F8D16678B142F5D199
:10541000E688002EF2D02679B242EFD1624619001A
:1054200004F092FEF8BD6678B1420FD05C34BC4205
:1054300006D026782000B542F5D05C34BC42F8D1C5
:1054400011000C48FFF7B0FD0020EBE7E688002EC6
:10545000ECD02679B24202D026797606E6D12271C6
:1054600051424A410121E2705022A154D6E7C04680
:105470005C45002044AB0010F0B5002910D000249A
:10548000FF26084A084F035D150A534033405B006E
:10549000FA5A01346A408C42F5DBD04380B2F0BD49
:1054A0000020FCE7FFFF00003C16002003BDC046C3
:1054B00010B50400FBF77EFFA04710BD8022054B0E
:1054C000520205491A600B681342FCD0034B1A6064
:1054D0007047C046042001400400014004300140F0
:1054E000F0B5040087B00F200E001700FBF7F8FCA2
:1054F000002105000F20FBF7E1FC002300220092B1
:10550000019301230293D0230496059400260024DE
:105510000121022003971B06002C14D01A6D1042A3
:10552000FCD05C6540BF1A6D114203D120BF1A6DDB
:105530001142FBD09A6DA2420AD000266C46B200FE
:10554000A458E9E79A6D1A6D1142FBD140BFE5E717
:105550000136062EF2D129000F20FBF7AFFC07B071
:10556000F0BDC0460D4B0E4A10B5934210D30D4A04
:1055700099181A000B4C1051FF20C00013500A4B11
:105580000A4813500A4B0B489A68FFF7A9FF10BD51
:1055900001235B421A000849ECE7C04600080420DA
:1055A00000000420F4070000B1540010FC070000C4
:1055B00000ED00E0AD540010F3070000074B10B5FC
:1055C000984204D0064A0748FBF7DCFB10BD064AA8
:1055D00004480431FBF7D6FBF8E7C0460000305022
:1055E000F8AB001061520020D4AB0010F0B5DE46DD
:1055F00057464E4645468846E0B583B0060005242A
:10560000FBF7AAFB43461F791C57314B8246F31820
:105610005A4253419B009C462E4A130093466246D1
:105620009B5801229946BA402023013ADB1B002CEB
:1056300036DB9C4246DCA2404B46134242D10192EB
:10564000002F1CD04246434652781B7812021A4360
:1056500043469B7880251B0413434246D0780022A2
:1056600000061843AD015300C15AA94200D20919DE
:10567000A31812339B0001329951BA42F3D34D461D
:10568000019B62461D435B4650469D50FBF770FBF5
:10569000200003B0F0BCBB46B246A946A046F0BD10
:1056A000002B0FDB1100484699401C00019101427C
:1056B00006D1C5E7150049469D401C00294204D08B
:1056C000013BF7D20448FDF727FA0195B8E7C04639
:1056D0000000D0AFCC3E002014AC0010F0B5DE4688
:1056E00057464E464546E0B51600DC22924685B048
:1056F0001C004B0002935B18DB00C518AA445246FD
:10570000834628001268CC3000920268C020CC3357
:1057100080015B4403438020800201921860002CCA
:105720001DD08023DB0499460123D83598462B00F1
:10573000E02755469A463F0203912000FEF7D2FD2E
:105740004A46430113432B6033004246C340134093
:1057500052463B431360631E1C40EED10399029BEB
:105760005B18DB005B441A000099DC321160019A7F
:10577000CC331A6005B0F0BCBB46B246A946A04681
:10578000F0BDC046F0B5DE4657464E464546E0B54C
:105790001600DC22924685B01C004B0002935B1879
:1057A000DB00C518AA445246834628001268CC3054
:1057B00000920268C020CC3380015B440343802008
:1057C000800201921860002C1CD08023DB049946D3
:1057D0000123D83598462B0055469A46124F03911F
:1057E0002000FEF77FFD4A46430113432B60330040
:1057F0004246C340134052463B431360631E1C4065
:10580000EED10399029B5B18DB005B441A00009900
:10581000DC321160019ACC331A6005B0F0BCBB4693
:10582000B246A946A046F0BD80E00000F0B557465C
:105830004E464546DE468946E0B583B00CA90D7854
:105840004946490088464944C90046183700340093
:10585000DC3784463868CC3483462068C024CC3199
:10586000A401614421438024A4020C6069424D419B
:105870001E216D428D43164901908A465544052BE1
:105880000CD9A0201F214005D8365401044305320D
:10589000053B3C600A403560052BF6D852019B065B
:1058A000134342464A44D20062441000DC32136083
:1058B0000300D8331D605B461360019BCC3003604E
:1058C00003B0F0BCBB46B246A946A046F0BDC046F8
:1058D0009FE00000F0B501258D400468AC430460F2
:1058E000002B2ED04D006C18E400041926001F6810
:1058F000C83637605F68DC3477609F68DB68B76004
:1059000023606B18DB001D008024D035451964012D
:105910002C4380252D06256025600125124C2E0084
:105920008C4084600C1DA640802408318D401F21CE
:10593000A4010443C0180A40D830266025600260E4
:10594000F0BD4D006C18E400041926008027C8360D
:105950007F023760F8277F027760C027DC343F037F
:10596000B7602360CDE7C04601010101F0B5C6462E
:10597000040000B5002812D00A4B002501269846E5
:10598000094F02E00135640809D02642FAD0290007
:1059900042463800FBF7F6F901356408F5D180BCC2
:1059A000B846F0BD28AC00105C52002010B50121B3
:1059B0000520FBF783FA10BD10B500220021024834
:1059C00000F058F910BDC046683F00208022024B0D
:1059D0005202DA647047C04600201150F0B5C64646
:1059E00000B5060000F020F90C231B4DFF22AB6729
:1059F00005201A49FBF7B2FA40239846184C40227A
:105A000000212000FFF722F94346012723832121AB
:105A10000023144A6770A260136063545F3161848D
:105A200041462187053963540F4A10496360E2609B
:105A3000A1620B606362E26204F066FB80239B0557
:105A40002F64EB6490230A4A3000EA50FFF7BEFF50
:105A500080BCB846F0BDC04600001150511900206E
:105A6000483F00208400105000011050800010506A
:105A700010D001000B785B0602D14B78052B00D0CB
:105A800070478A78014B1A60FAE7C046000011504F
:105A9000F0B5C64600B5CC7888780A794B797F2175
:105AA000A40701401B02C50913434F00A20F1400B5
:105AB000324E7A195201B21890700120684050702D
:105AC00000205B055B0DD0701383D4768046CA003E
:105AD000012D33D02A488446880162448446B44468
